{
  "contractName": "NobelMain",
  "abi": [
    {
      "inputs": [
        {
          "internalType": "address",
          "name": "_litter",
          "type": "address"
        },
        {
          "internalType": "uint256",
          "name": "_initial_supply",
          "type": "uint256"
        },
        {
          "internalType": "uint256",
          "name": "_minting_allowance_per_call",
          "type": "uint256"
        },
        {
          "internalType": "uint256",
          "name": "_cool_down_time_per_mint",
          "type": "uint256"
        }
      ],
      "stateMutability": "nonpayable",
      "type": "constructor"
    },
    {
      "anonymous": false,
      "inputs": [
        {
          "indexed": true,
          "internalType": "address",
          "name": "previousOwner",
          "type": "address"
        },
        {
          "indexed": true,
          "internalType": "address",
          "name": "newOwner",
          "type": "address"
        }
      ],
      "name": "OwnershipTransferred",
      "type": "event"
    },
    {
      "stateMutability": "nonpayable",
      "type": "fallback"
    },
    {
      "inputs": [],
      "name": "owner",
      "outputs": [
        {
          "internalType": "address",
          "name": "",
          "type": "address"
        }
      ],
      "stateMutability": "view",
      "type": "function",
      "constant": true
    },
    {
      "inputs": [],
      "name": "renounceOwnership",
      "outputs": [],
      "stateMutability": "nonpayable",
      "type": "function"
    },
    {
      "inputs": [
        {
          "internalType": "address",
          "name": "newOwner",
          "type": "address"
        }
      ],
      "name": "transferOwnership",
      "outputs": [],
      "stateMutability": "nonpayable",
      "type": "function"
    },
    {
      "inputs": [
        {
          "internalType": "string",
          "name": "_litterUri",
          "type": "string"
        },
        {
          "internalType": "string",
          "name": "_caption",
          "type": "string"
        }
      ],
      "name": "createNobelLitter",
      "outputs": [],
      "stateMutability": "nonpayable",
      "type": "function"
    },
    {
      "inputs": [],
      "name": "getLittersContractAddress",
      "outputs": [
        {
          "internalType": "address",
          "name": "litter_",
          "type": "address"
        }
      ],
      "stateMutability": "view",
      "type": "function",
      "constant": true
    },
    {
      "inputs": [],
      "name": "getNobelsContractAddress",
      "outputs": [
        {
          "internalType": "address",
          "name": "nobel_",
          "type": "address"
        }
      ],
      "stateMutability": "view",
      "type": "function",
      "constant": true
    },
    {
      "inputs": [
        {
          "internalType": "address",
          "name": "_checker",
          "type": "address"
        }
      ],
      "name": "getBalanceOfLitter",
      "outputs": [
        {
          "internalType": "uint256",
          "name": "balance_",
          "type": "uint256"
        }
      ],
      "stateMutability": "view",
      "type": "function",
      "constant": true
    },
    {
      "inputs": [
        {
          "internalType": "address",
          "name": "_checker",
          "type": "address"
        }
      ],
      "name": "getBalanceOfNobels",
      "outputs": [
        {
          "internalType": "uint256",
          "name": "balance_",
          "type": "uint256"
        }
      ],
      "stateMutability": "view",
      "type": "function",
      "constant": true
    }
  ],
  "bytecode": "0x60806040523480156200001157600080fd5b5060405162004db138038062004db18339818101604052810190620000379190620001f3565b600062000049620001af60201b60201c565b9050806000806101000a81548173ffffffffffffffffffffffffffffffffffffffff021916908373ffffffffffffffffffffffffffffffffffffffff1602179055508073ffffffffffffffffffffffffffffffffffffffff16600073ffffffffffffffffffffffffffffffffffffffff167f8be0079c531659141344cd1fd0a4f28419497f9722a3daafe3b4186f6b6457e060405160405180910390a35083600160006101000a81548173ffffffffffffffffffffffffffffffffffffffff021916908373ffffffffffffffffffffffffffffffffffffffff1602179055508282826040516200013990620001b7565b620001479392919062000270565b604051809103906000f08015801562000164573d6000803e3d6000fd5b50600260006101000a81548173ffffffffffffffffffffffffffffffffffffffff021916908373ffffffffffffffffffffffffffffffffffffffff160217905550505050506200031f565b600033905090565b613d4b806200106683390190565b600081519050620001d681620002eb565b92915050565b600081519050620001ed8162000305565b92915050565b600080600080608085870312156200020a57600080fd5b60006200021a87828801620001c5565b94505060206200022d87828801620001dc565b93505060406200024087828801620001dc565b92505060606200025387828801620001dc565b91505092959194509250565b6200026a81620002e1565b82525050565b60006060820190506200028760008301866200025f565b6200029660208301856200025f565b620002a560408301846200025f565b949350505050565b6000620002ba82620002c1565b9050919050565b600073ffffffffffffffffffffffffffffffffffffffff82169050919050565b6000819050919050565b620002f681620002ad565b81146200030257600080fd5b50565b6200031081620002e1565b81146200031c57600080fd5b50565b610d37806200032f6000396000f3fe608060405234801561001057600080fd5b506004361061008c5760003560e01c80638da5cb5b1161005b5780638da5cb5b14610108578063e968095f14610126578063f2fde38b14610156578063f483cdf0146101725761008d565b8063331c62f8146100925780636a1f94b1146100b0578063715018a6146100ce57806378a65fb1146100d85761008d565b5b600080fd5b61009a61018e565b6040516100a791906109f3565b60405180910390f35b6100b86101b8565b6040516100c591906109f3565b60405180910390f35b6100d66101e2565b005b6100f260048036038101906100ed919061086f565b61031c565b6040516100ff9190610abc565b60405180910390f35b6101106103d0565b60405161011d91906109f3565b60405180910390f35b610140600480360381019061013b919061086f565b6103f9565b60405161014d9190610abc565b60405180910390f35b610170600480360381019061016b919061086f565b6104ad565b005b61018c600480360381019061018791906108c1565b610656565b005b6000600160009054906101000a900473ffffffffffffffffffffffffffffffffffffffff16905090565b6000600260009054906101000a900473ffffffffffffffffffffffffffffffffffffffff16905090565b6101ea6107c0565b73ffffffffffffffffffffffffffffffffffffffff166102086103d0565b73ffffffffffffffffffffffffffffffffffffffff161461025e576040517f08c379a000000000000000000000000000000000000000000000000000000000815260040161025590610a9c565b60405180910390fd5b600073ffffffffffffffffffffffffffffffffffffffff1660008054906101000a900473ffffffffffffffffffffffffffffffffffffffff1673ffffffffffffffffffffffffffffffffffffffff167f8be0079c531659141344cd1fd0a4f28419497f9722a3daafe3b4186f6b6457e060405160405180910390a360008060006101000a81548173ffffffffffffffffffffffffffffffffffffffff021916908373ffffffffffffffffffffffffffffffffffffffff160217905550565b6000600260009054906101000a900473ffffffffffffffffffffffffffffffffffffffff1673ffffffffffffffffffffffffffffffffffffffff166370a08231836040518263ffffffff1660e01b815260040161037991906109f3565b60206040518083038186803b15801561039157600080fd5b505afa1580156103a5573d6000803e3d6000fd5b505050506040513d601f19601f820116820180604052508101906103c9919061092d565b9050919050565b60008060009054906101000a900473ffffffffffffffffffffffffffffffffffffffff16905090565b6000600160009054906101000a900473ffffffffffffffffffffffffffffffffffffffff1673ffffffffffffffffffffffffffffffffffffffff166370a08231836040518263ffffffff1660e01b815260040161045691906109f3565b60206040518083038186803b15801561046e57600080fd5b505afa158015610482573d6000803e3d6000fd5b505050506040513d601f19601f820116820180604052508101906104a6919061092d565b9050919050565b6104b56107c0565b73ffffffffffffffffffffffffffffffffffffffff166104d36103d0565b73ffffffffffffffffffffffffffffffffffffffff1614610529576040517f08c379a000000000000000000000000000000000000000000000000000000000815260040161052090610a9c565b60405180910390fd5b600073ffffffffffffffffffffffffffffffffffffffff168173ffffffffffffffffffffffffffffffffffffffff161415610599576040517f08c379a000000000000000000000000000000000000000000000000000000000815260040161059090610a7c565b60405180910390fd5b8073ffffffffffffffffffffffffffffffffffffffff1660008054906101000a900473ffffffffffffffffffffffffffffffffffffffff1673ffffffffffffffffffffffffffffffffffffffff167f8be0079c531659141344cd1fd0a4f28419497f9722a3daafe3b4186f6b6457e060405160405180910390a3806000806101000a81548173ffffffffffffffffffffffffffffffffffffffff021916908373ffffffffffffffffffffffffffffffffffffffff16021790555050565b6000600160009054906101000a900473ffffffffffffffffffffffffffffffffffffffff1673ffffffffffffffffffffffffffffffffffffffff16630b564a7c3385856040518463ffffffff1660e01b81526004016106b793929190610a0e565b602060405180830381600087803b1580156106d157600080fd5b505af11580156106e5573d6000803e3d6000fd5b505050506040513d601f19601f82011682018060405250810190610709919061092d565b9050600260009054906101000a900473ffffffffffffffffffffffffffffffffffffffff1673ffffffffffffffffffffffffffffffffffffffff1663a9059cbb33836040518363ffffffff1660e01b8152600401610768929190610a53565b602060405180830381600087803b15801561078257600080fd5b505af1158015610796573d6000803e3d6000fd5b505050506040513d601f19601f820116820180604052508101906107ba9190610898565b50505050565b600033905090565b60006107db6107d684610afc565b610ad7565b9050828152602081018484840111156107f357600080fd5b6107fe848285610b91565b509392505050565b60008135905061081581610cbc565b92915050565b60008151905061082a81610cd3565b92915050565b600082601f83011261084157600080fd5b81356108518482602086016107c8565b91505092915050565b60008151905061086981610cea565b92915050565b60006020828403121561088157600080fd5b600061088f84828501610806565b91505092915050565b6000602082840312156108aa57600080fd5b60006108b88482850161081b565b91505092915050565b600080604083850312156108d457600080fd5b600083013567ffffffffffffffff8111156108ee57600080fd5b6108fa85828601610830565b925050602083013567ffffffffffffffff81111561091757600080fd5b61092385828601610830565b9150509250929050565b60006020828403121561093f57600080fd5b600061094d8482850161085a565b91505092915050565b61095f81610b49565b82525050565b600061097082610b2d565b61097a8185610b38565b935061098a818560208601610ba0565b61099381610c33565b840191505092915050565b60006109ab602683610b38565b91506109b682610c44565b604082019050919050565b60006109ce602083610b38565b91506109d982610c93565b602082019050919050565b6109ed81610b87565b82525050565b6000602082019050610a086000830184610956565b92915050565b6000606082019050610a236000830186610956565b8181036020830152610a358185610965565b90508181036040830152610a498184610965565b9050949350505050565b6000604082019050610a686000830185610956565b610a7560208301846109e4565b9392505050565b60006020820190508181036000830152610a958161099e565b9050919050565b60006020820190508181036000830152610ab5816109c1565b9050919050565b6000602082019050610ad160008301846109e4565b92915050565b6000610ae1610af2565b9050610aed8282610bd3565b919050565b6000604051905090565b600067ffffffffffffffff821115610b1757610b16610c04565b5b610b2082610c33565b9050602081019050919050565b600081519050919050565b600082825260208201905092915050565b6000610b5482610b67565b9050919050565b60008115159050919050565b600073ffffffffffffffffffffffffffffffffffffffff82169050919050565b6000819050919050565b82818337600083830152505050565b60005b83811015610bbe578082015181840152602081019050610ba3565b83811115610bcd576000848401525b50505050565b610bdc82610c33565b810181811067ffffffffffffffff82111715610bfb57610bfa610c04565b5b80604052505050565b7f4e487b7100000000000000000000000000000000000000000000000000000000600052604160045260246000fd5b6000601f19601f8301169050919050565b7f4f776e61626c653a206e6577206f776e657220697320746865207a65726f206160008201527f6464726573730000000000000000000000000000000000000000000000000000602082015250565b7f4f776e61626c653a2063616c6c6572206973206e6f7420746865206f776e6572600082015250565b610cc581610b49565b8114610cd057600080fd5b50565b610cdc81610b5b565b8114610ce757600080fd5b50565b610cf381610b87565b8114610cfe57600080fd5b5056fea26469706673582212206254184f8e86ce8a29d86338ce2ee5c54308d0c891b1e2a0ceb4bbd1610a3c2664736f6c6343000803003360806040526127106008556143806009553480156200001d57600080fd5b5060405162003d4b38038062003d4b833981810160405281019062000043919062000744565b6040518060400160405280600b81526020017f4e6f62656c20546f6b656e0000000000000000000000000000000000000000008152506040518060400160405280600381526020017f4e4254000000000000000000000000000000000000000000000000000000000081525081818160059080519060200190620000c99291906200067d565b508060069080519060200190620000e29291906200067d565b5050506000600760006101000a81548160ff021916908315150217905550620001246000801b62000118620001d860201b60201c565b620001e060201b60201c565b620001657f9f2df0fed2c77648de5860a4cc508cd0818c85b8b8a1ab4ceeef8d981c8956a662000159620001d860201b60201c565b620001e060201b60201c565b620001a67f65d7a28e3265b37a6474929f336521b332c1681b933f6cb9f3376673440d862a6200019a620001d860201b60201c565b620001e060201b60201c565b5050620001ba33846200022860201b60201c565b816008819055508060098190555042600a81905550505050620009f8565b600033905090565b620001f782826200038e60201b62000f891760201c565b620002238160016000858152602001908152602001600020620003a460201b62000f971790919060201c565b505050565b600073ffffffffffffffffffffffffffffffffffffffff168273ffffffffffffffffffffffffffffffffffffffff1614156200029b576040517f08c379a00000000000000000000000000000000000000000000000000000000081526004016200029290620007f9565b60405180910390fd5b620002af60008383620003dc60201b60201c565b8060046000828254620002c391906200086b565b9250508190555080600260008473ffffffffffffffffffffffffffffffffffffffff1673ffffffffffffffffffffffffffffffffffffffff16815260200190815260200160002060008282546200031b91906200086b565b925050819055508173ffffffffffffffffffffffffffffffffffffffff16600073ffffffffffffffffffffffffffffffffffffffff167fddf252ad1be2c89b69c2b068fc378daa952ba7f163c4a11628f55a4df523b3ef836040516200038291906200083d565b60405180910390a35050565b620003a08282620003f960201b60201c565b5050565b6000620003d4836000018373ffffffffffffffffffffffffffffffffffffffff1660001b620004ea60201b60201c565b905092915050565b620003f48383836200056460201b62000fc71760201c565b505050565b6200040b8282620005d460201b60201c565b620004e657600160008084815260200190815260200160002060000160008373ffffffffffffffffffffffffffffffffffffffff1673ffffffffffffffffffffffffffffffffffffffff16815260200190815260200160002060006101000a81548160ff0219169083151502179055506200048b620001d860201b60201c565b73ffffffffffffffffffffffffffffffffffffffff168173ffffffffffffffffffffffffffffffffffffffff16837f2f8788117e7eff1d82e926ec794901d17c78024a50270940304540a733656f0d60405160405180910390a45b5050565b6000620004fe83836200063e60201b60201c565b620005595782600001829080600181540180825580915050600190039060005260206000200160009091909190915055826000018054905083600101600084815260200190815260200160002081905550600190506200055e565b600090505b92915050565b6200057c8383836200066160201b6200101f1760201c565b6200058c6200066660201b60201c565b15620005cf576040517f08c379a0000000000000000000000000000000000000000000000000000000008152600401620005c6906200081b565b60405180910390fd5b505050565b600080600084815260200190815260200160002060000160008373ffffffffffffffffffffffffffffffffffffffff1673ffffffffffffffffffffffffffffffffffffffff16815260200190815260200160002060009054906101000a900460ff16905092915050565b600080836001016000848152602001908152602001600020541415905092915050565b505050565b6000600760009054906101000a900460ff16905090565b8280546200068b90620008d2565b90600052602060002090601f016020900481019282620006af5760008555620006fb565b82601f10620006ca57805160ff1916838001178555620006fb565b82800160010185558215620006fb579182015b82811115620006fa578251825591602001919060010190620006dd565b5b5090506200070a91906200070e565b5090565b5b80821115620007295760008160009055506001016200070f565b5090565b6000815190506200073e81620009de565b92915050565b6000806000606084860312156200075a57600080fd5b60006200076a868287016200072d565b93505060206200077d868287016200072d565b925050604062000790868287016200072d565b9150509250925092565b6000620007a9601f836200085a565b9150620007b68262000966565b602082019050919050565b6000620007d0602a836200085a565b9150620007dd826200098f565b604082019050919050565b620007f381620008c8565b82525050565b6000602082019050818103600083015262000814816200079a565b9050919050565b600060208201905081810360008301526200083681620007c1565b9050919050565b6000602082019050620008546000830184620007e8565b92915050565b600082825260208201905092915050565b60006200087882620008c8565b91506200088583620008c8565b9250827fffffffffffffffffffffffffffffffffffffffffffffffffffffffffffffffff03821115620008bd57620008bc62000908565b5b828201905092915050565b6000819050919050565b60006002820490506001821680620008eb57607f821691505b6020821081141562000902576200090162000937565b5b50919050565b7f4e487b7100000000000000000000000000000000000000000000000000000000600052601160045260246000fd5b7f4e487b7100000000000000000000000000000000000000000000000000000000600052602260045260246000fd5b7f45524332303a206d696e7420746f20746865207a65726f206164647265737300600082015250565b7f45524332305061757361626c653a20746f6b656e207472616e7366657220776860008201527f696c652070617573656400000000000000000000000000000000000000000000602082015250565b620009e981620008c8565b8114620009f557600080fd5b50565b6133438062000a086000396000f3fe608060405234801561001057600080fd5b50600436106101e95760003560e01c806379cc67901161010f578063a9059cbb116100a2578063d539139311610071578063d5391393146105ad578063d547741f146105cb578063dd62ed3e146105e7578063e63ab1e914610617576101ea565b8063a9059cbb14610511578063aecfe50514610541578063ca15c8731461055f578063d2cdaf381461058f576101ea565b806395d89b41116100de57806395d89b4114610487578063a217fddf146104a5578063a457c2d7146104c3578063a606fb59146104f3576101ea565b806379cc6790146104015780638456cb591461041d5780639010d07c1461042757806391d1485414610457576101ea565b8063313ce5671161018757806340c10f191161015657806340c10f191461037b57806342966c68146103975780635c975abb146103b357806370a08231146103d1576101ea565b8063313ce5671461030757806336568abe1461032557806339509351146103415780633f4ba83a14610371576101ea565b806318160ddd116101c357806318160ddd1461026d57806323b872dd1461028b578063248a9ca3146102bb5780632f2ff15d146102eb576101ea565b806301ffc9a7146101ef57806306fdde031461021f578063095ea7b31461023d576101ea565b5b600080fd5b610209600480360381019061020491906122a7565b610635565b60405161021691906126bd565b60405180910390f35b6102276106af565b60405161023491906126f3565b60405180910390f35b610257600480360381019061025291906121ca565b610741565b60405161026491906126bd565b60405180910390f35b61027561075f565b60405161028291906129f5565b60405180910390f35b6102a560048036038101906102a0919061217b565b610769565b6040516102b291906126bd565b60405180910390f35b6102d560048036038101906102d09190612206565b61086a565b6040516102e291906126d8565b60405180910390f35b6103056004803603810190610300919061222f565b610889565b005b61030f6108bd565b60405161031c9190612a10565b60405180910390f35b61033f600480360381019061033a919061222f565b6108c2565b005b61035b600480360381019061035691906121ca565b6108f6565b60405161036891906126bd565b60405180910390f35b6103796109a2565b005b610395600480360381019061039091906121ca565b610a1c565b005b6103b160048036038101906103ac91906122d0565b610a9a565b005b6103bb610aae565b6040516103c891906126bd565b60405180910390f35b6103eb60048036038101906103e69190612116565b610ac5565b6040516103f891906129f5565b60405180910390f35b61041b600480360381019061041691906121ca565b610b0e565b005b610425610b92565b005b610441600480360381019061043c919061226b565b610c0c565b60405161044e91906126a2565b60405180910390f35b610471600480360381019061046c919061222f565b610c3b565b60405161047e91906126bd565b60405180910390f35b61048f610ca5565b60405161049c91906126f3565b60405180910390f35b6104ad610d37565b6040516104ba91906126d8565b60405180910390f35b6104dd60048036038101906104d891906121ca565b610d3e565b6040516104ea91906126bd565b60405180910390f35b6104fb610e32565b60405161050891906129f5565b60405180910390f35b61052b600480360381019061052691906121ca565b610e38565b60405161053891906126bd565b60405180910390f35b610549610e56565b60405161055691906129f5565b60405180910390f35b61057960048036038101906105749190612206565b610e5c565b60405161058691906129f5565b60405180910390f35b610597610e80565b6040516105a491906129f5565b60405180910390f35b6105b5610e86565b6040516105c291906126d8565b60405180910390f35b6105e560048036038101906105e0919061222f565b610eaa565b005b61060160048036038101906105fc919061213f565b610ede565b60405161060e91906129f5565b60405180910390f35b61061f610f65565b60405161062c91906126d8565b60405180910390f35b60007f5a05180f000000000000000000000000000000000000000000000000000000007bffffffffffffffffffffffffffffffffffffffffffffffffffffffff1916827bffffffffffffffffffffffffffffffffffffffffffffffffffffffff191614806106a857506106a782611024565b5b9050919050565b6060600580546106be90612b8f565b80601f01602080910402602001604051908101604052809291908181526020018280546106ea90612b8f565b80156107375780601f1061070c57610100808354040283529160200191610737565b820191906000526020600020905b81548152906001019060200180831161071a57829003601f168201915b5050505050905090565b600061075561074e61109e565b84846110a6565b6001905092915050565b6000600454905090565b6000610776848484611271565b6000600360008673ffffffffffffffffffffffffffffffffffffffff1673ffffffffffffffffffffffffffffffffffffffff16815260200190815260200160002060006107c161109e565b73ffffffffffffffffffffffffffffffffffffffff1673ffffffffffffffffffffffffffffffffffffffff16815260200190815260200160002054905082811015610841576040517f08c379a000000000000000000000000000000000000000000000000000000000815260040161083890612895565b60405180910390fd5b61085e8561084d61109e565b85846108599190612a9d565b6110a6565b60019150509392505050565b6000806000838152602001908152602001600020600101549050919050565b61089382826114f3565b6108b88160016000858152602001908152602001600020610f9790919063ffffffff16565b505050565b600090565b6108cc8282611559565b6108f181600160008581526020019081526020016000206115dc90919063ffffffff16565b505050565b600061099861090361109e565b84846003600061091161109e565b73ffffffffffffffffffffffffffffffffffffffff1673ffffffffffffffffffffffffffffffffffffffff16815260200190815260200160002060008873ffffffffffffffffffffffffffffffffffffffff1673ffffffffffffffffffffffffffffffffffffffff168152602001908152602001600020546109939190612a47565b6110a6565b6001905092915050565b6109d37f65d7a28e3265b37a6474929f336521b332c1681b933f6cb9f3376673440d862a6109ce61109e565b610c3b565b610a12576040517f08c379a0000000000000000000000000000000000000000000000000000000008152600401610a09906127b5565b60405180910390fd5b610a1a61160c565b565b610a4d7f9f2df0fed2c77648de5860a4cc508cd0818c85b8b8a1ab4ceeef8d981c8956a6610a4861109e565b610c3b565b610a8c576040517f08c379a0000000000000000000000000000000000000000000000000000000008152600401610a83906128b5565b60405180910390fd5b610a9682826116ae565b5050565b610aab610aa561109e565b8261175c565b50565b6000600760009054906101000a900460ff16905090565b6000600260008373ffffffffffffffffffffffffffffffffffffffff1673ffffffffffffffffffffffffffffffffffffffff168152602001908152602001600020549050919050565b6000610b2183610b1c61109e565b610ede565b905081811015610b66576040517f08c379a0000000000000000000000000000000000000000000000000000000008152600401610b5d906128d5565b60405180910390fd5b610b8383610b7261109e565b8484610b7e9190612a9d565b6110a6565b610b8d838361175c565b505050565b610bc37f65d7a28e3265b37a6474929f336521b332c1681b933f6cb9f3376673440d862a610bbe61109e565b610c3b565b610c02576040517f08c379a0000000000000000000000000000000000000000000000000000000008152600401610bf990612955565b60405180910390fd5b610c0a611932565b565b6000610c3382600160008681526020019081526020016000206119d590919063ffffffff16565b905092915050565b600080600084815260200190815260200160002060000160008373ffffffffffffffffffffffffffffffffffffffff1673ffffffffffffffffffffffffffffffffffffffff16815260200190815260200160002060009054906101000a900460ff16905092915050565b606060068054610cb490612b8f565b80601f0160208091040260200160405190810160405280929190818152602001828054610ce090612b8f565b8015610d2d5780601f10610d0257610100808354040283529160200191610d2d565b820191906000526020600020905b815481529060010190602001808311610d1057829003601f168201915b5050505050905090565b6000801b81565b60008060036000610d4d61109e565b73ffffffffffffffffffffffffffffffffffffffff1673ffffffffffffffffffffffffffffffffffffffff16815260200190815260200160002060008573ffffffffffffffffffffffffffffffffffffffff1673ffffffffffffffffffffffffffffffffffffffff16815260200190815260200160002054905082811015610e0a576040517f08c379a0000000000000000000000000000000000000000000000000000000008152600401610e0190612975565b60405180910390fd5b610e27610e1561109e565b858584610e229190612a9d565b6110a6565b600191505092915050565b60095481565b6000610e4c610e4561109e565b8484611271565b6001905092915050565b60085481565b6000610e79600160008481526020019081526020016000206119ef565b9050919050565b600a5481565b7f9f2df0fed2c77648de5860a4cc508cd0818c85b8b8a1ab4ceeef8d981c8956a681565b610eb48282611a04565b610ed981600160008581526020019081526020016000206115dc90919063ffffffff16565b505050565b6000600360008473ffffffffffffffffffffffffffffffffffffffff1673ffffffffffffffffffffffffffffffffffffffff16815260200190815260200160002060008373ffffffffffffffffffffffffffffffffffffffff1673ffffffffffffffffffffffffffffffffffffffff16815260200190815260200160002054905092915050565b7f65d7a28e3265b37a6474929f336521b332c1681b933f6cb9f3376673440d862a81565b610f938282611a6a565b5050565b6000610fbf836000018373ffffffffffffffffffffffffffffffffffffffff1660001b611b4a565b905092915050565b610fd283838361101f565b610fda610aae565b1561101a576040517f08c379a0000000000000000000000000000000000000000000000000000000008152600401611011906129d5565b60405180910390fd5b505050565b505050565b60007f7965db0b000000000000000000000000000000000000000000000000000000007bffffffffffffffffffffffffffffffffffffffffffffffffffffffff1916827bffffffffffffffffffffffffffffffffffffffffffffffffffffffff19161480611097575061109682611bba565b5b9050919050565b600033905090565b600073ffffffffffffffffffffffffffffffffffffffff168373ffffffffffffffffffffffffffffffffffffffff161415611116576040517f08c379a000000000000000000000000000000000000000000000000000000000815260040161110d90612935565b60405180910390fd5b600073ffffffffffffffffffffffffffffffffffffffff168273ffffffffffffffffffffffffffffffffffffffff161415611186576040517f08c379a000000000000000000000000000000000000000000000000000000000815260040161117d906127f5565b60405180910390fd5b80600360008573ffffffffffffffffffffffffffffffffffffffff1673ffffffffffffffffffffffffffffffffffffffff16815260200190815260200160002060008473ffffffffffffffffffffffffffffffffffffffff1673ffffffffffffffffffffffffffffffffffffffff168152602001908152602001600020819055508173ffffffffffffffffffffffffffffffffffffffff168373ffffffffffffffffffffffffffffffffffffffff167f8c5be1e5ebec7d5bd14f71427d1e84f3dd0314c0f7b2291e5b200ac8c7c3b9258360405161126491906129f5565b60405180910390a3505050565b600073ffffffffffffffffffffffffffffffffffffffff168373ffffffffffffffffffffffffffffffffffffffff1614156112e1576040517f08c379a00000000000000000000000000000000000000000000000000000000081526004016112d890612915565b60405180910390fd5b600073ffffffffffffffffffffffffffffffffffffffff168273ffffffffffffffffffffffffffffffffffffffff161415611351576040517f08c379a000000000000000000000000000000000000000000000000000000000815260040161134890612735565b60405180910390fd5b61135c838383611c24565b6000600260008573ffffffffffffffffffffffffffffffffffffffff1673ffffffffffffffffffffffffffffffffffffffff168152602001908152602001600020549050818110156113e3576040517f08c379a00000000000000000000000000000000000000000000000000000000081526004016113da90612835565b60405180910390fd5b81816113ef9190612a9d565b600260008673ffffffffffffffffffffffffffffffffffffffff1673ffffffffffffffffffffffffffffffffffffffff1681526020019081526020016000208190555081600260008573ffffffffffffffffffffffffffffffffffffffff1673ffffffffffffffffffffffffffffffffffffffff16815260200190815260200160002060008282546114819190612a47565b925050819055508273ffffffffffffffffffffffffffffffffffffffff168473ffffffffffffffffffffffffffffffffffffffff167fddf252ad1be2c89b69c2b068fc378daa952ba7f163c4a11628f55a4df523b3ef846040516114e591906129f5565b60405180910390a350505050565b61150c6114ff8361086a565b61150761109e565b610c3b565b61154b576040517f08c379a000000000000000000000000000000000000000000000000000000000815260040161154290612755565b60405180910390fd5b6115558282611a6a565b5050565b61156161109e565b73ffffffffffffffffffffffffffffffffffffffff168173ffffffffffffffffffffffffffffffffffffffff16146115ce576040517f08c379a00000000000000000000000000000000000000000000000000000000081526004016115c590612995565b60405180910390fd5b6115d88282611c34565b5050565b6000611604836000018373ffffffffffffffffffffffffffffffffffffffff1660001b611d15565b905092915050565b611614610aae565b611653576040517f08c379a000000000000000000000000000000000000000000000000000000000815260040161164a90612775565b60405180910390fd5b6000600760006101000a81548160ff0219169083151502179055507f5db9ee0a495bf2e6ff9c91a7834c1ba4fdd244a5e8aa4e537bd38aeae4b073aa61169761109e565b6040516116a491906126a2565b60405180910390a1565b600954600a54426116bf9190612a9d565b1015611700576040517f08c379a00000000000000000000000000000000000000000000000000000000081526004016116f7906127d5565b60405180910390fd5b80600854811115611746576040517f08c379a000000000000000000000000000000000000000000000000000000000815260040161173d90612815565b60405180910390fd5b42600a819055506117578383611e9f565b505050565b600073ffffffffffffffffffffffffffffffffffffffff168273ffffffffffffffffffffffffffffffffffffffff1614156117cc576040517f08c379a00000000000000000000000000000000000000000000000000000000081526004016117c3906128f5565b60405180910390fd5b6117d882600083611c24565b6000600260008473ffffffffffffffffffffffffffffffffffffffff1673ffffffffffffffffffffffffffffffffffffffff1681526020019081526020016000205490508181101561185f576040517f08c379a000000000000000000000000000000000000000000000000000000000815260040161185690612795565b60405180910390fd5b818161186b9190612a9d565b600260008573ffffffffffffffffffffffffffffffffffffffff1673ffffffffffffffffffffffffffffffffffffffff1681526020019081526020016000208190555081600460008282546118c09190612a9d565b92505081905550600073ffffffffffffffffffffffffffffffffffffffff168373ffffffffffffffffffffffffffffffffffffffff167fddf252ad1be2c89b69c2b068fc378daa952ba7f163c4a11628f55a4df523b3ef8460405161192591906129f5565b60405180910390a3505050565b61193a610aae565b1561197a576040517f08c379a000000000000000000000000000000000000000000000000000000000815260040161197190612875565b60405180910390fd5b6001600760006101000a81548160ff0219169083151502179055507f62e78cea01bee320cd4e420270b5ea74000d11b0c9f74754ebdbfc544b05a2586119be61109e565b6040516119cb91906126a2565b60405180910390a1565b60006119e48360000183611ff4565b60001c905092915050565b60006119fd8260000161208e565b9050919050565b611a1d611a108361086a565b611a1861109e565b610c3b565b611a5c576040517f08c379a0000000000000000000000000000000000000000000000000000000008152600401611a5390612855565b60405180910390fd5b611a668282611c34565b5050565b611a748282610c3b565b611b4657600160008084815260200190815260200160002060000160008373ffffffffffffffffffffffffffffffffffffffff1673ffffffffffffffffffffffffffffffffffffffff16815260200190815260200160002060006101000a81548160ff021916908315150217905550611aeb61109e565b73ffffffffffffffffffffffffffffffffffffffff168173ffffffffffffffffffffffffffffffffffffffff16837f2f8788117e7eff1d82e926ec794901d17c78024a50270940304540a733656f0d60405160405180910390a45b5050565b6000611b56838361209f565b611baf578260000182908060018154018082558091505060019003906000526020600020016000909190919091505582600001805490508360010160008481526020019081526020016000208190555060019050611bb4565b600090505b92915050565b60007f01ffc9a7000000000000000000000000000000000000000000000000000000007bffffffffffffffffffffffffffffffffffffffffffffffffffffffff1916827bffffffffffffffffffffffffffffffffffffffffffffffffffffffff1916149050919050565b611c2f838383610fc7565b505050565b611c3e8282610c3b565b15611d1157600080600084815260200190815260200160002060000160008373ffffffffffffffffffffffffffffffffffffffff1673ffffffffffffffffffffffffffffffffffffffff16815260200190815260200160002060006101000a81548160ff021916908315150217905550611cb661109e565b73ffffffffffffffffffffffffffffffffffffffff168173ffffffffffffffffffffffffffffffffffffffff16837ff6391f5c32d9c69d2a47ea670b442974b53935d1edc7fd64eb21e047a839171b60405160405180910390a45b5050565b60008083600101600084815260200190815260200160002054905060008114611e93576000600182611d479190612a9d565b9050600060018660000180549050611d5f9190612a9d565b90506000866000018281548110611d9f577f4e487b7100000000000000000000000000000000000000000000000000000000600052603260045260246000fd5b9060005260206000200154905080876000018481548110611de9577f4e487b7100000000000000000000000000000000000000000000000000000000600052603260045260246000fd5b9060005260206000200181905550600183611e049190612a47565b8760010160008381526020019081526020016000208190555086600001805480611e57577f4e487b7100000000000000000000000000000000000000000000000000000000600052603160045260246000fd5b60019003818190600052602060002001600090559055866001016000878152602001908152602001600020600090556001945050505050611e99565b60009150505b92915050565b600073ffffffffffffffffffffffffffffffffffffffff168273ffffffffffffffffffffffffffffffffffffffff161415611f0f576040517f08c379a0000000000000000000000000000000000000000000000000000000008152600401611f06906129b5565b60405180910390fd5b611f1b60008383611c24565b8060046000828254611f2d9190612a47565b9250508190555080600260008473ffffffffffffffffffffffffffffffffffffffff1673ffffffffffffffffffffffffffffffffffffffff1681526020019081526020016000206000828254611f839190612a47565b925050819055508173ffffffffffffffffffffffffffffffffffffffff16600073ffffffffffffffffffffffffffffffffffffffff167fddf252ad1be2c89b69c2b068fc378daa952ba7f163c4a11628f55a4df523b3ef83604051611fe891906129f5565b60405180910390a35050565b60008183600001805490501161203f576040517f08c379a000000000000000000000000000000000000000000000000000000000815260040161203690612715565b60405180910390fd5b82600001828154811061207b577f4e487b7100000000000000000000000000000000000000000000000000000000600052603260045260246000fd5b9060005260206000200154905092915050565b600081600001805490509050919050565b600080836001016000848152602001908152602001600020541415905092915050565b6000813590506120d1816132b1565b92915050565b6000813590506120e6816132c8565b92915050565b6000813590506120fb816132df565b92915050565b600081359050612110816132f6565b92915050565b60006020828403121561212857600080fd5b6000612136848285016120c2565b91505092915050565b6000806040838503121561215257600080fd5b6000612160858286016120c2565b9250506020612171858286016120c2565b9150509250929050565b60008060006060848603121561219057600080fd5b600061219e868287016120c2565b93505060206121af868287016120c2565b92505060406121c086828701612101565b9150509250925092565b600080604083850312156121dd57600080fd5b60006121eb858286016120c2565b92505060206121fc85828601612101565b9150509250929050565b60006020828403121561221857600080fd5b6000612226848285016120d7565b91505092915050565b6000806040838503121561224257600080fd5b6000612250858286016120d7565b9250506020612261858286016120c2565b9150509250929050565b6000806040838503121561227e57600080fd5b600061228c858286016120d7565b925050602061229d85828601612101565b9150509250929050565b6000602082840312156122b957600080fd5b60006122c7848285016120ec565b91505092915050565b6000602082840312156122e257600080fd5b60006122f084828501612101565b91505092915050565b61230281612ad1565b82525050565b61231181612ae3565b82525050565b61232081612aef565b82525050565b600061233182612a2b565b61233b8185612a36565b935061234b818560208601612b5c565b61235481612c1f565b840191505092915050565b600061236c602283612a36565b915061237782612c30565b604082019050919050565b600061238f602383612a36565b915061239a82612c7f565b604082019050919050565b60006123b2602f83612a36565b91506123bd82612cce565b604082019050919050565b60006123d5601483612a36565b91506123e082612d1d565b602082019050919050565b60006123f8602283612a36565b915061240382612d46565b604082019050919050565b600061241b603983612a36565b915061242682612d95565b604082019050919050565b600061243e602f83612a36565b915061244982612de4565b604082019050919050565b6000612461602283612a36565b915061246c82612e33565b604082019050919050565b6000612484601f83612a36565b915061248f82612e82565b602082019050919050565b60006124a7602683612a36565b91506124b282612eab565b604082019050919050565b60006124ca603083612a36565b91506124d582612efa565b604082019050919050565b60006124ed601083612a36565b91506124f882612f49565b602082019050919050565b6000612510602883612a36565b915061251b82612f72565b604082019050919050565b6000612533603683612a36565b915061253e82612fc1565b604082019050919050565b6000612556602483612a36565b915061256182613010565b604082019050919050565b6000612579602183612a36565b91506125848261305f565b604082019050919050565b600061259c602583612a36565b91506125a7826130ae565b604082019050919050565b60006125bf602483612a36565b91506125ca826130fd565b604082019050919050565b60006125e2603783612a36565b91506125ed8261314c565b604082019050919050565b6000612605602583612a36565b91506126108261319b565b604082019050919050565b6000612628602f83612a36565b9150612633826131ea565b604082019050919050565b600061264b601f83612a36565b915061265682613239565b602082019050919050565b600061266e602a83612a36565b915061267982613262565b604082019050919050565b61268d81612b45565b82525050565b61269c81612b4f565b82525050565b60006020820190506126b760008301846122f9565b92915050565b60006020820190506126d26000830184612308565b92915050565b60006020820190506126ed6000830184612317565b92915050565b6000602082019050818103600083015261270d8184612326565b905092915050565b6000602082019050818103600083015261272e8161235f565b9050919050565b6000602082019050818103600083015261274e81612382565b9050919050565b6000602082019050818103600083015261276e816123a5565b9050919050565b6000602082019050818103600083015261278e816123c8565b9050919050565b600060208201905081810360008301526127ae816123eb565b9050919050565b600060208201905081810360008301526127ce8161240e565b9050919050565b600060208201905081810360008301526127ee81612431565b9050919050565b6000602082019050818103600083015261280e81612454565b9050919050565b6000602082019050818103600083015261282e81612477565b9050919050565b6000602082019050818103600083015261284e8161249a565b9050919050565b6000602082019050818103600083015261286e816124bd565b9050919050565b6000602082019050818103600083015261288e816124e0565b9050919050565b600060208201905081810360008301526128ae81612503565b9050919050565b600060208201905081810360008301526128ce81612526565b9050919050565b600060208201905081810360008301526128ee81612549565b9050919050565b6000602082019050818103600083015261290e8161256c565b9050919050565b6000602082019050818103600083015261292e8161258f565b9050919050565b6000602082019050818103600083015261294e816125b2565b9050919050565b6000602082019050818103600083015261296e816125d5565b9050919050565b6000602082019050818103600083015261298e816125f8565b9050919050565b600060208201905081810360008301526129ae8161261b565b9050919050565b600060208201905081810360008301526129ce8161263e565b9050919050565b600060208201905081810360008301526129ee81612661565b9050919050565b6000602082019050612a0a6000830184612684565b92915050565b6000602082019050612a256000830184612693565b92915050565b600081519050919050565b600082825260208201905092915050565b6000612a5282612b45565b9150612a5d83612b45565b9250827fffffffffffffffffffffffffffffffffffffffffffffffffffffffffffffffff03821115612a9257612a91612bc1565b5b828201905092915050565b6000612aa882612b45565b9150612ab383612b45565b925082821015612ac657612ac5612bc1565b5b828203905092915050565b6000612adc82612b25565b9050919050565b60008115159050919050565b6000819050919050565b60007fffffffff0000000000000000000000000000000000000000000000000000000082169050919050565b600073ffffffffffffffffffffffffffffffffffffffff82169050919050565b6000819050919050565b600060ff82169050919050565b60005b83811015612b7a578082015181840152602081019050612b5f565b83811115612b89576000848401525b50505050565b60006002820490506001821680612ba757607f821691505b60208210811415612bbb57612bba612bf0565b5b50919050565b7f4e487b7100000000000000000000000000000000000000000000000000000000600052601160045260246000fd5b7f4e487b7100000000000000000000000000000000000000000000000000000000600052602260045260246000fd5b6000601f19601f8301169050919050565b7f456e756d657261626c655365743a20696e646578206f7574206f6620626f756e60008201527f6473000000000000000000000000000000000000000000000000000000000000602082015250565b7f45524332303a207472616e7366657220746f20746865207a65726f206164647260008201527f6573730000000000000000000000000000000000000000000000000000000000602082015250565b7f416363657373436f6e74726f6c3a2073656e646572206d75737420626520616e60008201527f2061646d696e20746f206772616e740000000000000000000000000000000000602082015250565b7f5061757361626c653a206e6f7420706175736564000000000000000000000000600082015250565b7f45524332303a206275726e20616d6f756e7420657863656564732062616c616e60008201527f6365000000000000000000000000000000000000000000000000000000000000602082015250565b7f45524332305072657365744d696e7465725061757365723a206d75737420686160008201527f76652070617573657220726f6c6520746f20756e706175736500000000000000602082015250565b7f43616e6e6f7420696e6372656173652074686520737570706c7920776974686f60008201527f757420636f6f6c696e6720646f776e0000000000000000000000000000000000602082015250565b7f45524332303a20617070726f766520746f20746865207a65726f20616464726560008201527f7373000000000000000000000000000000000000000000000000000000000000602082015250565b7f43616e6e6f74206d696e74206d6f7265207468616e20616c6c6f77616e636500600082015250565b7f45524332303a207472616e7366657220616d6f756e742065786365656473206260008201527f616c616e63650000000000000000000000000000000000000000000000000000602082015250565b7f416363657373436f6e74726f6c3a2073656e646572206d75737420626520616e60008201527f2061646d696e20746f207265766f6b6500000000000000000000000000000000602082015250565b7f5061757361626c653a2070617573656400000000000000000000000000000000600082015250565b7f45524332303a207472616e7366657220616d6f756e742065786365656473206160008201527f6c6c6f77616e6365000000000000000000000000000000000000000000000000602082015250565b7f45524332305072657365744d696e7465725061757365723a206d75737420686160008201527f7665206d696e74657220726f6c6520746f206d696e7400000000000000000000602082015250565b7f45524332303a206275726e20616d6f756e74206578636565647320616c6c6f7760008201527f616e636500000000000000000000000000000000000000000000000000000000602082015250565b7f45524332303a206275726e2066726f6d20746865207a65726f2061646472657360008201527f7300000000000000000000000000000000000000000000000000000000000000602082015250565b7f45524332303a207472616e736665722066726f6d20746865207a65726f20616460008201527f6472657373000000000000000000000000000000000000000000000000000000602082015250565b7f45524332303a20617070726f76652066726f6d20746865207a65726f2061646460008201527f7265737300000000000000000000000000000000000000000000000000000000602082015250565b7f45524332305072657365744d696e7465725061757365723a206d75737420686160008201527f76652070617573657220726f6c6520746f207061757365000000000000000000602082015250565b7f45524332303a2064656372656173656420616c6c6f77616e63652062656c6f7760008201527f207a65726f000000000000000000000000000000000000000000000000000000602082015250565b7f416363657373436f6e74726f6c3a2063616e206f6e6c792072656e6f756e636560008201527f20726f6c657320666f722073656c660000000000000000000000000000000000602082015250565b7f45524332303a206d696e7420746f20746865207a65726f206164647265737300600082015250565b7f45524332305061757361626c653a20746f6b656e207472616e7366657220776860008201527f696c652070617573656400000000000000000000000000000000000000000000602082015250565b6132ba81612ad1565b81146132c557600080fd5b50565b6132d181612aef565b81146132dc57600080fd5b50565b6132e881612af9565b81146132f357600080fd5b50565b6132ff81612b45565b811461330a57600080fd5b5056fea264697066735822122094f0d95801818a44062d9f05843c6a01620d70a1ee14b1cf70335269bca1184964736f6c63430008030033",
  "immutableReferences": {},
  "source": "pragma solidity ^0.8.0;\r\n\r\nimport './OpenNFT.sol';\r\nimport './NobelToken.sol';\r\n\r\ncontract NobelMain is Ownable {\r\n    \r\n    OpenNFT litters;\r\n    NobelToken nobels;\r\n    \r\n    constructor (\r\n        address _litter,\r\n        uint _initial_supply,\r\n        uint _minting_allowance_per_call,\r\n        uint _cool_down_time_per_mint\r\n        ) public {\r\n        litters = OpenNFT(_litter);\r\n        nobels = new NobelToken(_initial_supply, _minting_allowance_per_call, _cool_down_time_per_mint);\r\n    }\r\n\r\n    function createNobelLitter(string memory _litterUri, string memory _caption) public {\r\n        uint reward = litters.createNFT(msg.sender, _litterUri, _caption);\r\n        nobels.transfer(msg.sender, reward);\r\n    }\r\n    \r\n    function getLittersContractAddress() public view returns(address litter_){\r\n        return address(litters);\r\n    }\r\n    \r\n    function getNobelsContractAddress() public view returns(address nobel_){\r\n        return address(nobels);\r\n    }\r\n    \r\n    function getBalanceOfLitter(address _checker) public view returns(uint balance_){\r\n        return litters.balanceOf(_checker);\r\n    }\r\n    \r\n    function getBalanceOfNobels(address _checker) public view returns(uint balance_){\r\n        return nobels.balanceOf(_checker);\r\n    }\r\n\r\n    fallback () external {\r\n        revert();\r\n    }\r\n    \r\n}",
  "sourcePath": "E:/Projects/BlockchainBootcamp/open-nft-marketplace/contracts/NobelMain.sol",
  "compiler": {
    "name": "solc",
    "version": "0.8.3+commit.8d00100c.Emscripten.clang"
  },
  "schemaVersion": "3.3.4",
  "updatedAt": "2021-03-24T17:29:38.712Z",
  "networkType": "ethereum",
  "devdoc": {
    "kind": "dev",
    "methods": {
      "owner()": {
        "details": "Returns the address of the current owner."
      },
      "renounceOwnership()": {
        "details": "Leaves the contract without owner. It will not be possible to call `onlyOwner` functions anymore. Can only be called by the current owner. NOTE: Renouncing ownership will leave the contract without an owner, thereby removing any functionality that is only available to the owner."
      },
      "transferOwnership(address)": {
        "details": "Transfers ownership of the contract to a new account (`newOwner`). Can only be called by the current owner."
      }
    },
    "version": 1
  },
  "userdoc": {
    "kind": "user",
    "methods": {},
    "version": 1
  }
}