{
  "contractName": "OpenNFT",
  "abi": [
    {
      "inputs": [
        {
          "internalType": "string",
          "name": "_name",
          "type": "string"
        },
        {
          "internalType": "string",
          "name": "_symbol",
          "type": "string"
        }
      ],
      "stateMutability": "nonpayable",
      "type": "constructor"
    },
    {
      "anonymous": false,
      "inputs": [
        {
          "indexed": true,
          "internalType": "address",
          "name": "owner",
          "type": "address"
        },
        {
          "indexed": true,
          "internalType": "address",
          "name": "approved",
          "type": "address"
        },
        {
          "indexed": true,
          "internalType": "uint256",
          "name": "tokenId",
          "type": "uint256"
        }
      ],
      "name": "Approval",
      "type": "event"
    },
    {
      "anonymous": false,
      "inputs": [
        {
          "indexed": true,
          "internalType": "address",
          "name": "owner",
          "type": "address"
        },
        {
          "indexed": true,
          "internalType": "address",
          "name": "operator",
          "type": "address"
        },
        {
          "indexed": false,
          "internalType": "bool",
          "name": "approved",
          "type": "bool"
        }
      ],
      "name": "ApprovalForAll",
      "type": "event"
    },
    {
      "anonymous": false,
      "inputs": [
        {
          "indexed": false,
          "internalType": "uint256",
          "name": "_time",
          "type": "uint256"
        },
        {
          "indexed": false,
          "internalType": "address",
          "name": "_caller",
          "type": "address"
        }
      ],
      "name": "NFTInitialised",
      "type": "event"
    },
    {
      "anonymous": false,
      "inputs": [
        {
          "indexed": false,
          "internalType": "address",
          "name": "creator",
          "type": "address"
        },
        {
          "indexed": false,
          "internalType": "uint256",
          "name": "tokenId",
          "type": "uint256"
        },
        {
          "indexed": false,
          "internalType": "string",
          "name": "tokenUri",
          "type": "string"
        }
      ],
      "name": "NftTokenCreated",
      "type": "event"
    },
    {
      "anonymous": false,
      "inputs": [
        {
          "indexed": true,
          "internalType": "address",
          "name": "previousOwner",
          "type": "address"
        },
        {
          "indexed": true,
          "internalType": "address",
          "name": "newOwner",
          "type": "address"
        }
      ],
      "name": "OwnershipTransferred",
      "type": "event"
    },
    {
      "anonymous": false,
      "inputs": [
        {
          "indexed": true,
          "internalType": "address",
          "name": "from",
          "type": "address"
        },
        {
          "indexed": true,
          "internalType": "address",
          "name": "to",
          "type": "address"
        },
        {
          "indexed": true,
          "internalType": "uint256",
          "name": "tokenId",
          "type": "uint256"
        }
      ],
      "name": "Transfer",
      "type": "event"
    },
    {
      "inputs": [
        {
          "internalType": "address",
          "name": "to",
          "type": "address"
        },
        {
          "internalType": "uint256",
          "name": "tokenId",
          "type": "uint256"
        }
      ],
      "name": "approve",
      "outputs": [],
      "stateMutability": "nonpayable",
      "type": "function"
    },
    {
      "inputs": [
        {
          "internalType": "address",
          "name": "owner",
          "type": "address"
        }
      ],
      "name": "balanceOf",
      "outputs": [
        {
          "internalType": "uint256",
          "name": "",
          "type": "uint256"
        }
      ],
      "stateMutability": "view",
      "type": "function",
      "constant": true
    },
    {
      "inputs": [
        {
          "internalType": "uint256",
          "name": "tokenId",
          "type": "uint256"
        }
      ],
      "name": "getApproved",
      "outputs": [
        {
          "internalType": "address",
          "name": "",
          "type": "address"
        }
      ],
      "stateMutability": "view",
      "type": "function",
      "constant": true
    },
    {
      "inputs": [
        {
          "internalType": "address",
          "name": "owner",
          "type": "address"
        },
        {
          "internalType": "address",
          "name": "operator",
          "type": "address"
        }
      ],
      "name": "isApprovedForAll",
      "outputs": [
        {
          "internalType": "bool",
          "name": "",
          "type": "bool"
        }
      ],
      "stateMutability": "view",
      "type": "function",
      "constant": true
    },
    {
      "inputs": [],
      "name": "name",
      "outputs": [
        {
          "internalType": "string",
          "name": "",
          "type": "string"
        }
      ],
      "stateMutability": "view",
      "type": "function",
      "constant": true
    },
    {
      "inputs": [],
      "name": "owner",
      "outputs": [
        {
          "internalType": "address",
          "name": "",
          "type": "address"
        }
      ],
      "stateMutability": "view",
      "type": "function",
      "constant": true
    },
    {
      "inputs": [
        {
          "internalType": "uint256",
          "name": "tokenId",
          "type": "uint256"
        }
      ],
      "name": "ownerOf",
      "outputs": [
        {
          "internalType": "address",
          "name": "",
          "type": "address"
        }
      ],
      "stateMutability": "view",
      "type": "function",
      "constant": true
    },
    {
      "inputs": [],
      "name": "renounceOwnership",
      "outputs": [],
      "stateMutability": "nonpayable",
      "type": "function"
    },
    {
      "inputs": [
        {
          "internalType": "address",
          "name": "from",
          "type": "address"
        },
        {
          "internalType": "address",
          "name": "to",
          "type": "address"
        },
        {
          "internalType": "uint256",
          "name": "tokenId",
          "type": "uint256"
        }
      ],
      "name": "safeTransferFrom",
      "outputs": [],
      "stateMutability": "nonpayable",
      "type": "function"
    },
    {
      "inputs": [
        {
          "internalType": "address",
          "name": "from",
          "type": "address"
        },
        {
          "internalType": "address",
          "name": "to",
          "type": "address"
        },
        {
          "internalType": "uint256",
          "name": "tokenId",
          "type": "uint256"
        },
        {
          "internalType": "bytes",
          "name": "_data",
          "type": "bytes"
        }
      ],
      "name": "safeTransferFrom",
      "outputs": [],
      "stateMutability": "nonpayable",
      "type": "function"
    },
    {
      "inputs": [
        {
          "internalType": "address",
          "name": "operator",
          "type": "address"
        },
        {
          "internalType": "bool",
          "name": "approved",
          "type": "bool"
        }
      ],
      "name": "setApprovalForAll",
      "outputs": [],
      "stateMutability": "nonpayable",
      "type": "function"
    },
    {
      "inputs": [
        {
          "internalType": "bytes4",
          "name": "interfaceId",
          "type": "bytes4"
        }
      ],
      "name": "supportsInterface",
      "outputs": [
        {
          "internalType": "bool",
          "name": "",
          "type": "bool"
        }
      ],
      "stateMutability": "view",
      "type": "function",
      "constant": true
    },
    {
      "inputs": [],
      "name": "symbol",
      "outputs": [
        {
          "internalType": "string",
          "name": "",
          "type": "string"
        }
      ],
      "stateMutability": "view",
      "type": "function",
      "constant": true
    },
    {
      "inputs": [],
      "name": "tokenId",
      "outputs": [
        {
          "internalType": "uint256",
          "name": "_value",
          "type": "uint256"
        }
      ],
      "stateMutability": "view",
      "type": "function",
      "constant": true
    },
    {
      "inputs": [
        {
          "internalType": "address",
          "name": "from",
          "type": "address"
        },
        {
          "internalType": "address",
          "name": "to",
          "type": "address"
        },
        {
          "internalType": "uint256",
          "name": "tokenId",
          "type": "uint256"
        }
      ],
      "name": "transferFrom",
      "outputs": [],
      "stateMutability": "nonpayable",
      "type": "function"
    },
    {
      "inputs": [
        {
          "internalType": "address",
          "name": "newOwner",
          "type": "address"
        }
      ],
      "name": "transferOwnership",
      "outputs": [],
      "stateMutability": "nonpayable",
      "type": "function"
    },
    {
      "inputs": [
        {
          "internalType": "address",
          "name": "_creator",
          "type": "address"
        },
        {
          "internalType": "string",
          "name": "_tokenURI",
          "type": "string"
        }
      ],
      "name": "createNFT",
      "outputs": [
        {
          "internalType": "uint256",
          "name": "_reward",
          "type": "uint256"
        }
      ],
      "stateMutability": "nonpayable",
      "type": "function"
    },
    {
      "inputs": [
        {
          "internalType": "address",
          "name": "_creator",
          "type": "address"
        }
      ],
      "name": "getUserNFTs",
      "outputs": [
        {
          "internalType": "uint256[]",
          "name": "_tokens",
          "type": "uint256[]"
        }
      ],
      "stateMutability": "view",
      "type": "function",
      "constant": true
    },
    {
      "inputs": [
        {
          "internalType": "uint256",
          "name": "_tokenId",
          "type": "uint256"
        }
      ],
      "name": "getTokenUri",
      "outputs": [
        {
          "internalType": "string",
          "name": "tokenUri_",
          "type": "string"
        }
      ],
      "stateMutability": "view",
      "type": "function",
      "constant": true
    },
    {
      "inputs": [
        {
          "internalType": "uint256",
          "name": "tokenId",
          "type": "uint256"
        }
      ],
      "name": "tokenURI",
      "outputs": [
        {
          "internalType": "string",
          "name": "_uri",
          "type": "string"
        }
      ],
      "stateMutability": "view",
      "type": "function",
      "constant": true
    },
    {
      "inputs": [
        {
          "internalType": "string",
          "name": "baseUri_",
          "type": "string"
        }
      ],
      "name": "setBaseUrl",
      "outputs": [],
      "stateMutability": "nonpayable",
      "type": "function"
    }
  ],
  "bytecode": "0x60806040523480156200001157600080fd5b50604051620035ea380380620035ea83398181016040528101906200003791906200028b565b818181600090805190602001906200005192919062000169565b5080600190805190602001906200006a92919062000169565b50505060006200007f6200016160201b60201c565b905080600660006101000a81548173ffffffffffffffffffffffffffffffffffffffff021916908373ffffffffffffffffffffffffffffffffffffffff1602179055508073ffffffffffffffffffffffffffffffffffffffff16600073ffffffffffffffffffffffffffffffffffffffff167f8be0079c531659141344cd1fd0a4f28419497f9722a3daafe3b4186f6b6457e060405160405180910390a3507f451a95fdf4424d3f1fc736b5787f5b9186e21c8af9c4cef020067be638e1ad0e42336040516200015192919062000320565b60405180910390a15050620004fb565b600033905090565b828054620001779062000420565b90600052602060002090601f0160209004810192826200019b5760008555620001e7565b82601f10620001b657805160ff1916838001178555620001e7565b82800160010185558215620001e7579182015b82811115620001e6578251825591602001919060010190620001c9565b5b509050620001f69190620001fa565b5090565b5b8082111562000215576000816000905550600101620001fb565b5090565b6000620002306200022a8462000376565b6200034d565b9050828152602081018484840111156200024957600080fd5b62000256848285620003ea565b509392505050565b600082601f8301126200027057600080fd5b81516200028284826020860162000219565b91505092915050565b600080604083850312156200029f57600080fd5b600083015167ffffffffffffffff811115620002ba57600080fd5b620002c8858286016200025e565b925050602083015167ffffffffffffffff811115620002e657600080fd5b620002f4858286016200025e565b9150509250929050565b6200030981620003ac565b82525050565b6200031a81620003e0565b82525050565b60006040820190506200033760008301856200030f565b620003466020830184620002fe565b9392505050565b6000620003596200036c565b905062000367828262000456565b919050565b6000604051905090565b600067ffffffffffffffff821115620003945762000393620004bb565b5b6200039f82620004ea565b9050602081019050919050565b6000620003b982620003c0565b9050919050565b600073ffffffffffffffffffffffffffffffffffffffff82169050919050565b6000819050919050565b60005b838110156200040a578082015181840152602081019050620003ed565b838111156200041a576000848401525b50505050565b600060028204905060018216806200043957607f821691505b6020821081141562000450576200044f6200048c565b5b50919050565b6200046182620004ea565b810181811067ffffffffffffffff82111715620004835762000482620004bb565b5b80604052505050565b7f4e487b7100000000000000000000000000000000000000000000000000000000600052602260045260246000fd5b7f4e487b7100000000000000000000000000000000000000000000000000000000600052604160045260246000fd5b6000601f19601f8301169050919050565b6130df806200050b6000396000f3fe608060405234801561001057600080fd5b50600436106101375760003560e01c8063715018a6116100b8578063a56140331161007c578063a56140331461034e578063b88d4fde1461037e578063c7c3268b1461039a578063c87b56dd146103b6578063e985e9c5146103e6578063f2fde38b1461041657610137565b8063715018a6146102bc5780638ad91345146102c65780638da5cb5b146102f657806395d89b4114610314578063a22cb4651461033257610137565b806323b872dd116100ff57806323b872dd146101f457806342842e0e1461021057806352de4ee51461022c5780636352211e1461025c57806370a082311461028c57610137565b806301ffc9a71461013c57806306fdde031461016c578063081812fc1461018a578063095ea7b3146101ba57806317d70f7c146101d6575b600080fd5b61015660048036038101906101519190612019565b610432565b6040516101639190612644565b60405180910390f35b610174610514565b604051610181919061265f565b60405180910390f35b6101a4600480360381019061019f91906120ac565b6105a6565b6040516101b1919061257d565b60405180910390f35b6101d460048036038101906101cf9190611fdd565b61062b565b005b6101de610743565b6040516101eb9190612881565b60405180910390f35b61020e60048036038101906102099190611e83565b61074f565b005b61022a60048036038101906102259190611e83565b6107af565b005b61024660048036038101906102419190611e1e565b6107cf565b6040516102539190612622565b60405180910390f35b610276600480360381019061027191906120ac565b610866565b604051610283919061257d565b60405180910390f35b6102a660048036038101906102a19190611e1e565b610918565b6040516102b39190612881565b60405180910390f35b6102c46109d0565b005b6102e060048036038101906102db91906120ac565b610b0d565b6040516102ed919061265f565b60405180910390f35b6102fe610bb2565b60405161030b919061257d565b60405180910390f35b61031c610bdc565b604051610329919061265f565b60405180910390f35b61034c60048036038101906103479190611f4d565b610c6e565b005b61036860048036038101906103639190611f89565b610def565b6040516103759190612881565b60405180910390f35b61039860048036038101906103939190611ed2565b610ef9565b005b6103b460048036038101906103af919061206b565b610f5b565b005b6103d060048036038101906103cb91906120ac565b610ff1565b6040516103dd919061265f565b60405180910390f35b61040060048036038101906103fb9190611e47565b6110a2565b60405161040d9190612644565b60405180910390f35b610430600480360381019061042b9190611e1e565b611136565b005b60007f80ac58cd000000000000000000000000000000000000000000000000000000007bffffffffffffffffffffffffffffffffffffffffffffffffffffffff1916827bffffffffffffffffffffffffffffffffffffffffffffffffffffffff191614806104fd57507f5b5e139f000000000000000000000000000000000000000000000000000000007bffffffffffffffffffffffffffffffffffffffffffffffffffffffff1916827bffffffffffffffffffffffffffffffffffffffffffffffffffffffff1916145b8061050d575061050c826112e2565b5b9050919050565b60606000805461052390612af4565b80601f016020809104026020016040519081016040528092919081815260200182805461054f90612af4565b801561059c5780601f106105715761010080835404028352916020019161059c565b820191906000526020600020905b81548152906001019060200180831161057f57829003601f168201915b5050505050905090565b60006105b18261134c565b6105f0576040517f08c379a00000000000000000000000000000000000000000000000000000000081526004016105e7906127c1565b60405180910390fd5b6004600083815260200190815260200160002060009054906101000a900473ffffffffffffffffffffffffffffffffffffffff169050919050565b600061063682610866565b90508073ffffffffffffffffffffffffffffffffffffffff168373ffffffffffffffffffffffffffffffffffffffff1614156106a7576040517f08c379a000000000000000000000000000000000000000000000000000000000815260040161069e90612841565b60405180910390fd5b8073ffffffffffffffffffffffffffffffffffffffff166106c66113b8565b73ffffffffffffffffffffffffffffffffffffffff1614806106f557506106f4816106ef6113b8565b6110a2565b5b610734576040517f08c379a000000000000000000000000000000000000000000000000000000000815260040161072b90612741565b60405180910390fd5b61073e83836113c0565b505050565b60078060000154905081565b61076061075a6113b8565b82611479565b61079f576040517f08c379a000000000000000000000000000000000000000000000000000000000815260040161079690612861565b60405180910390fd5b6107aa838383611557565b505050565b6107ca83838360405180602001604052806000815250610ef9565b505050565b6060600a60008373ffffffffffffffffffffffffffffffffffffffff1673ffffffffffffffffffffffffffffffffffffffff16815260200190815260200160002080548060200260200160405190810160405280929190818152602001828054801561085a57602002820191906000526020600020905b815481526020019060010190808311610846575b50505050509050919050565b6000806002600084815260200190815260200160002060009054906101000a900473ffffffffffffffffffffffffffffffffffffffff169050600073ffffffffffffffffffffffffffffffffffffffff168173ffffffffffffffffffffffffffffffffffffffff16141561090f576040517f08c379a000000000000000000000000000000000000000000000000000000000815260040161090690612781565b60405180910390fd5b80915050919050565b60008073ffffffffffffffffffffffffffffffffffffffff168273ffffffffffffffffffffffffffffffffffffffff161415610989576040517f08c379a000000000000000000000000000000000000000000000000000000000815260040161098090612761565b60405180910390fd5b600360008373ffffffffffffffffffffffffffffffffffffffff1673ffffffffffffffffffffffffffffffffffffffff168152602001908152602001600020549050919050565b6109d86113b8565b73ffffffffffffffffffffffffffffffffffffffff166109f6610bb2565b73ffffffffffffffffffffffffffffffffffffffff1614610a4c576040517f08c379a0000000000000000000000000000000000000000000000000000000008152600401610a43906127e1565b60405180910390fd5b600073ffffffffffffffffffffffffffffffffffffffff16600660009054906101000a900473ffffffffffffffffffffffffffffffffffffffff1673ffffffffffffffffffffffffffffffffffffffff167f8be0079c531659141344cd1fd0a4f28419497f9722a3daafe3b4186f6b6457e060405160405180910390a36000600660006101000a81548173ffffffffffffffffffffffffffffffffffffffff021916908373ffffffffffffffffffffffffffffffffffffffff160217905550565b6060600960008381526020019081526020016000208054610b2d90612af4565b80601f0160208091040260200160405190810160405280929190818152602001828054610b5990612af4565b8015610ba65780601f10610b7b57610100808354040283529160200191610ba6565b820191906000526020600020905b815481529060010190602001808311610b8957829003601f168201915b50505050509050919050565b6000600660009054906101000a900473ffffffffffffffffffffffffffffffffffffffff16905090565b606060018054610beb90612af4565b80601f0160208091040260200160405190810160405280929190818152602001828054610c1790612af4565b8015610c645780601f10610c3957610100808354040283529160200191610c64565b820191906000526020600020905b815481529060010190602001808311610c4757829003601f168201915b5050505050905090565b610c766113b8565b73ffffffffffffffffffffffffffffffffffffffff168273ffffffffffffffffffffffffffffffffffffffff161415610ce4576040517f08c379a0000000000000000000000000000000000000000000000000000000008152600401610cdb90612701565b60405180910390fd5b8060056000610cf16113b8565b73ffffffffffffffffffffffffffffffffffffffff1673ffffffffffffffffffffffffffffffffffffffff16815260200190815260200160002060008473ffffffffffffffffffffffffffffffffffffffff1673ffffffffffffffffffffffffffffffffffffffff16815260200190815260200160002060006101000a81548160ff0219169083151502179055508173ffffffffffffffffffffffffffffffffffffffff16610d9e6113b8565b73ffffffffffffffffffffffffffffffffffffffff167f17307eab39ab6107e8899845ad3d59bd9653f200f220920489ca2b5937696c3183604051610de39190612644565b60405180910390a35050565b6000610dfb60076117b3565b6000610e0760076117c9565b9050610e1384826117d7565b82600960008381526020019081526020016000209080519060200190610e3a929190611c42565b50600a60008573ffffffffffffffffffffffffffffffffffffffff1673ffffffffffffffffffffffffffffffffffffffff1681526020019081526020016000208190806001815401808255809150506001900390600052602060002001600090919091909150557f1f2ff6bb7abce32a04a91be56d627d310137b1ada9d4dced966d5422903fbece848260096000858152602001908152602001600020604051610ee6939291906125e4565b60405180910390a1600191505092915050565b610f0a610f046113b8565b83611479565b610f49576040517f08c379a0000000000000000000000000000000000000000000000000000000008152600401610f4090612861565b60405180910390fd5b610f55848484846119a5565b50505050565b610f636113b8565b73ffffffffffffffffffffffffffffffffffffffff16610f81610bb2565b73ffffffffffffffffffffffffffffffffffffffff1614610fd7576040517f08c379a0000000000000000000000000000000000000000000000000000000008152600401610fce906127e1565b60405180910390fd5b8060089080519060200190610fed929190611c42565b5050565b6060610ffc8261134c565b61103b576040517f08c379a000000000000000000000000000000000000000000000000000000000815260040161103290612821565b60405180910390fd5b6000611045611a01565b90506000815111611065576040518060200160405280600081525061109a565b806009600085815260200190815260200160002060405160200161108a929190612559565b6040516020818303038152906040525b915050919050565b6000600560008473ffffffffffffffffffffffffffffffffffffffff1673ffffffffffffffffffffffffffffffffffffffff16815260200190815260200160002060008373ffffffffffffffffffffffffffffffffffffffff1673ffffffffffffffffffffffffffffffffffffffff16815260200190815260200160002060009054906101000a900460ff16905092915050565b61113e6113b8565b73ffffffffffffffffffffffffffffffffffffffff1661115c610bb2565b73ffffffffffffffffffffffffffffffffffffffff16146111b2576040517f08c379a00000000000000000000000000000000000000000000000000000000081526004016111a9906127e1565b60405180910390fd5b600073ffffffffffffffffffffffffffffffffffffffff168173ffffffffffffffffffffffffffffffffffffffff161415611222576040517f08c379a0000000000000000000000000000000000000000000000000000000008152600401611219906126a1565b60405180910390fd5b8073ffffffffffffffffffffffffffffffffffffffff16600660009054906101000a900473ffffffffffffffffffffffffffffffffffffffff1673ffffffffffffffffffffffffffffffffffffffff167f8be0079c531659141344cd1fd0a4f28419497f9722a3daafe3b4186f6b6457e060405160405180910390a380600660006101000a81548173ffffffffffffffffffffffffffffffffffffffff021916908373ffffffffffffffffffffffffffffffffffffffff16021790555050565b60007f01ffc9a7000000000000000000000000000000000000000000000000000000007bffffffffffffffffffffffffffffffffffffffffffffffffffffffff1916827bffffffffffffffffffffffffffffffffffffffffffffffffffffffff1916149050919050565b60008073ffffffffffffffffffffffffffffffffffffffff166002600084815260200190815260200160002060009054906101000a900473ffffffffffffffffffffffffffffffffffffffff1673ffffffffffffffffffffffffffffffffffffffff1614159050919050565b600033905090565b816004600083815260200190815260200160002060006101000a81548173ffffffffffffffffffffffffffffffffffffffff021916908373ffffffffffffffffffffffffffffffffffffffff160217905550808273ffffffffffffffffffffffffffffffffffffffff1661143383610866565b73ffffffffffffffffffffffffffffffffffffffff167f8c5be1e5ebec7d5bd14f71427d1e84f3dd0314c0f7b2291e5b200ac8c7c3b92560405160405180910390a45050565b60006114848261134c565b6114c3576040517f08c379a00000000000000000000000000000000000000000000000000000000081526004016114ba90612721565b60405180910390fd5b60006114ce83610866565b90508073ffffffffffffffffffffffffffffffffffffffff168473ffffffffffffffffffffffffffffffffffffffff16148061153d57508373ffffffffffffffffffffffffffffffffffffffff16611525846105a6565b73ffffffffffffffffffffffffffffffffffffffff16145b8061154e575061154d81856110a2565b5b91505092915050565b8273ffffffffffffffffffffffffffffffffffffffff1661157782610866565b73ffffffffffffffffffffffffffffffffffffffff16146115cd576040517f08c379a00000000000000000000000000000000000000000000000000000000081526004016115c490612801565b60405180910390fd5b600073ffffffffffffffffffffffffffffffffffffffff168273ffffffffffffffffffffffffffffffffffffffff16141561163d576040517f08c379a0000000000000000000000000000000000000000000000000000000008152600401611634906126e1565b60405180910390fd5b611648838383611a93565b6116536000826113c0565b6001600360008573ffffffffffffffffffffffffffffffffffffffff1673ffffffffffffffffffffffffffffffffffffffff16815260200190815260200160002060008282546116a39190612a0a565b925050819055506001600360008473ffffffffffffffffffffffffffffffffffffffff1673ffffffffffffffffffffffffffffffffffffffff16815260200190815260200160002060008282546116fa91906129b4565b92505081905550816002600083815260200190815260200160002060006101000a81548173ffffffffffffffffffffffffffffffffffffffff021916908373ffffffffffffffffffffffffffffffffffffffff160217905550808273ffffffffffffffffffffffffffffffffffffffff168473ffffffffffffffffffffffffffffffffffffffff167fddf252ad1be2c89b69c2b068fc378daa952ba7f163c4a11628f55a4df523b3ef60405160405180910390a4505050565b6001816000016000828254019250508190555050565b600081600001549050919050565b600073ffffffffffffffffffffffffffffffffffffffff168273ffffffffffffffffffffffffffffffffffffffff161415611847576040517f08c379a000000000000000000000000000000000000000000000000000000000815260040161183e906127a1565b60405180910390fd5b6118508161134c565b15611890576040517f08c379a0000000000000000000000000000000000000000000000000000000008152600401611887906126c1565b60405180910390fd5b61189c60008383611a93565b6001600360008473ffffffffffffffffffffffffffffffffffffffff1673ffffffffffffffffffffffffffffffffffffffff16815260200190815260200160002060008282546118ec91906129b4565b92505081905550816002600083815260200190815260200160002060006101000a81548173ffffffffffffffffffffffffffffffffffffffff021916908373ffffffffffffffffffffffffffffffffffffffff160217905550808273ffffffffffffffffffffffffffffffffffffffff16600073ffffffffffffffffffffffffffffffffffffffff167fddf252ad1be2c89b69c2b068fc378daa952ba7f163c4a11628f55a4df523b3ef60405160405180910390a45050565b6119b0848484611557565b6119bc84848484611a98565b6119fb576040517f08c379a00000000000000000000000000000000000000000000000000000000081526004016119f290612681565b60405180910390fd5b50505050565b606060088054611a1090612af4565b80601f0160208091040260200160405190810160405280929190818152602001828054611a3c90612af4565b8015611a895780601f10611a5e57610100808354040283529160200191611a89565b820191906000526020600020905b815481529060010190602001808311611a6c57829003601f168201915b5050505050905090565b505050565b6000611ab98473ffffffffffffffffffffffffffffffffffffffff16611c2f565b15611c22578373ffffffffffffffffffffffffffffffffffffffff1663150b7a02611ae26113b8565b8786866040518563ffffffff1660e01b8152600401611b049493929190612598565b602060405180830381600087803b158015611b1e57600080fd5b505af1925050508015611b4f57506040513d601f19601f82011682018060405250810190611b4c9190612042565b60015b611bd2573d8060008114611b7f576040519150601f19603f3d011682016040523d82523d6000602084013e611b84565b606091505b50600081511415611bca576040517f08c379a0000000000000000000000000000000000000000000000000000000008152600401611bc190612681565b60405180910390fd5b805181602001fd5b63150b7a0260e01b7bffffffffffffffffffffffffffffffffffffffffffffffffffffffff1916817bffffffffffffffffffffffffffffffffffffffffffffffffffffffff191614915050611c27565b600190505b949350505050565b600080823b905060008111915050919050565b828054611c4e90612af4565b90600052602060002090601f016020900481019282611c705760008555611cb7565b82601f10611c8957805160ff1916838001178555611cb7565b82800160010185558215611cb7579182015b82811115611cb6578251825591602001919060010190611c9b565b5b509050611cc49190611cc8565b5090565b5b80821115611ce1576000816000905550600101611cc9565b5090565b6000611cf8611cf3846128c1565b61289c565b905082815260208101848484011115611d1057600080fd5b611d1b848285612ab2565b509392505050565b6000611d36611d31846128f2565b61289c565b905082815260208101848484011115611d4e57600080fd5b611d59848285612ab2565b509392505050565b600081359050611d708161304d565b92915050565b600081359050611d8581613064565b92915050565b600081359050611d9a8161307b565b92915050565b600081519050611daf8161307b565b92915050565b600082601f830112611dc657600080fd5b8135611dd6848260208601611ce5565b91505092915050565b600082601f830112611df057600080fd5b8135611e00848260208601611d23565b91505092915050565b600081359050611e1881613092565b92915050565b600060208284031215611e3057600080fd5b6000611e3e84828501611d61565b91505092915050565b60008060408385031215611e5a57600080fd5b6000611e6885828601611d61565b9250506020611e7985828601611d61565b9150509250929050565b600080600060608486031215611e9857600080fd5b6000611ea686828701611d61565b9350506020611eb786828701611d61565b9250506040611ec886828701611e09565b9150509250925092565b60008060008060808587031215611ee857600080fd5b6000611ef687828801611d61565b9450506020611f0787828801611d61565b9350506040611f1887828801611e09565b925050606085013567ffffffffffffffff811115611f3557600080fd5b611f4187828801611db5565b91505092959194509250565b60008060408385031215611f6057600080fd5b6000611f6e85828601611d61565b9250506020611f7f85828601611d76565b9150509250929050565b60008060408385031215611f9c57600080fd5b6000611faa85828601611d61565b925050602083013567ffffffffffffffff811115611fc757600080fd5b611fd385828601611ddf565b9150509250929050565b60008060408385031215611ff057600080fd5b6000611ffe85828601611d61565b925050602061200f85828601611e09565b9150509250929050565b60006020828403121561202b57600080fd5b600061203984828501611d8b565b91505092915050565b60006020828403121561205457600080fd5b600061206284828501611da0565b91505092915050565b60006020828403121561207d57600080fd5b600082013567ffffffffffffffff81111561209757600080fd5b6120a384828501611ddf565b91505092915050565b6000602082840312156120be57600080fd5b60006120cc84828501611e09565b91505092915050565b60006120e1838361253b565b60208301905092915050565b6120f681612a3e565b82525050565b600061210782612948565b6121118185612976565b935061211c83612923565b8060005b8381101561214d57815161213488826120d5565b975061213f83612969565b925050600181019050612120565b5085935050505092915050565b61216381612a50565b82525050565b600061217482612953565b61217e8185612987565b935061218e818560208601612ac1565b61219781612be4565b840191505092915050565b60006121ad8261295e565b6121b78185612998565b93506121c7818560208601612ac1565b6121d081612be4565b840191505092915050565b60006121e68261295e565b6121f081856129a9565b9350612200818560208601612ac1565b80840191505092915050565b6000815461221981612af4565b6122238186612998565b9450600182166000811461223e576001811461225057612283565b60ff1983168652602086019350612283565b61225985612933565b60005b8381101561227b5781548189015260018201915060208101905061225c565b808801955050505b50505092915050565b6000815461229981612af4565b6122a381866129a9565b945060018216600081146122be57600181146122cf57612302565b60ff19831686528186019350612302565b6122d885612933565b60005b838110156122fa578154818901526001820191506020810190506122db565b838801955050505b50505092915050565b6000612318603283612998565b915061232382612bf5565b604082019050919050565b600061233b602683612998565b915061234682612c44565b604082019050919050565b600061235e601c83612998565b915061236982612c93565b602082019050919050565b6000612381602483612998565b915061238c82612cbc565b604082019050919050565b60006123a4601983612998565b91506123af82612d0b565b602082019050919050565b60006123c7602c83612998565b91506123d282612d34565b604082019050919050565b60006123ea603883612998565b91506123f582612d83565b604082019050919050565b600061240d602a83612998565b915061241882612dd2565b604082019050919050565b6000612430602983612998565b915061243b82612e21565b604082019050919050565b6000612453602083612998565b915061245e82612e70565b602082019050919050565b6000612476602c83612998565b915061248182612e99565b604082019050919050565b6000612499602083612998565b91506124a482612ee8565b602082019050919050565b60006124bc602983612998565b91506124c782612f11565b604082019050919050565b60006124df602f83612998565b91506124ea82612f60565b604082019050919050565b6000612502602183612998565b915061250d82612faf565b604082019050919050565b6000612525603183612998565b915061253082612ffe565b604082019050919050565b61254481612aa8565b82525050565b61255381612aa8565b82525050565b600061256582856121db565b9150612571828461228c565b91508190509392505050565b600060208201905061259260008301846120ed565b92915050565b60006080820190506125ad60008301876120ed565b6125ba60208301866120ed565b6125c7604083018561254a565b81810360608301526125d98184612169565b905095945050505050565b60006060820190506125f960008301866120ed565b612606602083018561254a565b8181036040830152612618818461220c565b9050949350505050565b6000602082019050818103600083015261263c81846120fc565b905092915050565b6000602082019050612659600083018461215a565b92915050565b6000602082019050818103600083015261267981846121a2565b905092915050565b6000602082019050818103600083015261269a8161230b565b9050919050565b600060208201905081810360008301526126ba8161232e565b9050919050565b600060208201905081810360008301526126da81612351565b9050919050565b600060208201905081810360008301526126fa81612374565b9050919050565b6000602082019050818103600083015261271a81612397565b9050919050565b6000602082019050818103600083015261273a816123ba565b9050919050565b6000602082019050818103600083015261275a816123dd565b9050919050565b6000602082019050818103600083015261277a81612400565b9050919050565b6000602082019050818103600083015261279a81612423565b9050919050565b600060208201905081810360008301526127ba81612446565b9050919050565b600060208201905081810360008301526127da81612469565b9050919050565b600060208201905081810360008301526127fa8161248c565b9050919050565b6000602082019050818103600083015261281a816124af565b9050919050565b6000602082019050818103600083015261283a816124d2565b9050919050565b6000602082019050818103600083015261285a816124f5565b9050919050565b6000602082019050818103600083015261287a81612518565b9050919050565b6000602082019050612896600083018461254a565b92915050565b60006128a66128b7565b90506128b28282612b26565b919050565b6000604051905090565b600067ffffffffffffffff8211156128dc576128db612bb5565b5b6128e582612be4565b9050602081019050919050565b600067ffffffffffffffff82111561290d5761290c612bb5565b5b61291682612be4565b9050602081019050919050565b6000819050602082019050919050565b60008190508160005260206000209050919050565b600081519050919050565b600081519050919050565b600081519050919050565b6000602082019050919050565b600082825260208201905092915050565b600082825260208201905092915050565b600082825260208201905092915050565b600081905092915050565b60006129bf82612aa8565b91506129ca83612aa8565b9250827fffffffffffffffffffffffffffffffffffffffffffffffffffffffffffffffff038211156129ff576129fe612b57565b5b828201905092915050565b6000612a1582612aa8565b9150612a2083612aa8565b925082821015612a3357612a32612b57565b5b828203905092915050565b6000612a4982612a88565b9050919050565b60008115159050919050565b60007fffffffff0000000000000000000000000000000000000000000000000000000082169050919050565b600073ffffffffffffffffffffffffffffffffffffffff82169050919050565b6000819050919050565b82818337600083830152505050565b60005b83811015612adf578082015181840152602081019050612ac4565b83811115612aee576000848401525b50505050565b60006002820490506001821680612b0c57607f821691505b60208210811415612b2057612b1f612b86565b5b50919050565b612b2f82612be4565b810181811067ffffffffffffffff82111715612b4e57612b4d612bb5565b5b80604052505050565b7f4e487b7100000000000000000000000000000000000000000000000000000000600052601160045260246000fd5b7f4e487b7100000000000000000000000000000000000000000000000000000000600052602260045260246000fd5b7f4e487b7100000000000000000000000000000000000000000000000000000000600052604160045260246000fd5b6000601f19601f8301169050919050565b7f4552433732313a207472616e7366657220746f206e6f6e20455243373231526560008201527f63656976657220696d706c656d656e7465720000000000000000000000000000602082015250565b7f4f776e61626c653a206e6577206f776e657220697320746865207a65726f206160008201527f6464726573730000000000000000000000000000000000000000000000000000602082015250565b7f4552433732313a20746f6b656e20616c7265616479206d696e74656400000000600082015250565b7f4552433732313a207472616e7366657220746f20746865207a65726f2061646460008201527f7265737300000000000000000000000000000000000000000000000000000000602082015250565b7f4552433732313a20617070726f766520746f2063616c6c657200000000000000600082015250565b7f4552433732313a206f70657261746f7220717565727920666f72206e6f6e657860008201527f697374656e7420746f6b656e0000000000000000000000000000000000000000602082015250565b7f4552433732313a20617070726f76652063616c6c6572206973206e6f74206f7760008201527f6e6572206e6f7220617070726f76656420666f7220616c6c0000000000000000602082015250565b7f4552433732313a2062616c616e636520717565727920666f7220746865207a6560008201527f726f206164647265737300000000000000000000000000000000000000000000602082015250565b7f4552433732313a206f776e657220717565727920666f72206e6f6e657869737460008201527f656e7420746f6b656e0000000000000000000000000000000000000000000000602082015250565b7f4552433732313a206d696e7420746f20746865207a65726f2061646472657373600082015250565b7f4552433732313a20617070726f76656420717565727920666f72206e6f6e657860008201527f697374656e7420746f6b656e0000000000000000000000000000000000000000602082015250565b7f4f776e61626c653a2063616c6c6572206973206e6f7420746865206f776e6572600082015250565b7f4552433732313a207472616e73666572206f6620746f6b656e2074686174206960008201527f73206e6f74206f776e0000000000000000000000000000000000000000000000602082015250565b7f4552433732314d657461646174613a2055524920717565727920666f72206e6f60008201527f6e6578697374656e7420746f6b656e0000000000000000000000000000000000602082015250565b7f4552433732313a20617070726f76616c20746f2063757272656e74206f776e6560008201527f7200000000000000000000000000000000000000000000000000000000000000602082015250565b7f4552433732313a207472616e736665722063616c6c6572206973206e6f74206f60008201527f776e6572206e6f7220617070726f766564000000000000000000000000000000602082015250565b61305681612a3e565b811461306157600080fd5b50565b61306d81612a50565b811461307857600080fd5b50565b61308481612a5c565b811461308f57600080fd5b50565b61309b81612aa8565b81146130a657600080fd5b5056fea2646970667358221220905bf476847e7284423cffcba9ee189d088365c84d02ac5f3a25d3525844867964736f6c63430008030033",
  "immutableReferences": {},
  "source": "pragma solidity ^0.8.0;\r\n\r\nimport '@openzeppelin/contracts/token/ERC721/ERC721.sol';\r\nimport \"@openzeppelin/contracts/utils/Counters.sol\";\r\nimport '@openzeppelin/contracts/access/Ownable.sol';\r\n\r\ncontract OpenNFT is ERC721, Ownable {\r\n    using Counters for Counters.Counter;\r\n    Counters.Counter public tokenId;\r\n\r\n    string private baseUri;\r\n\r\n    event NFTInitialised(uint _time, address _caller);\r\n\r\n    event NftTokenCreated(address creator, uint tokenId, string tokenUri);\r\n\r\n    mapping(uint => string) private tokenURIs;\r\n\r\n    mapping(address => uint[]) private user_to_tokens;  //new\r\n\r\n    constructor (\r\n        string memory _name,\r\n        string memory _symbol\r\n    ) \r\n    public \r\n    ERC721(_name, _symbol)\r\n    {\r\n        emit NFTInitialised(block.timestamp, msg.sender);\r\n    }\r\n\r\n    function createNFT(address _creator, string memory _tokenURI) \r\n                                    public returns(uint _reward) {\r\n        tokenId.increment();\r\n\r\n        uint newTokenId = tokenId.current();\r\n\r\n        _mint(_creator, newTokenId);\r\n        tokenURIs[newTokenId] = _tokenURI;\r\n\r\n        user_to_tokens[_creator].push(newTokenId);  //new\r\n\r\n        emit NftTokenCreated(_creator, newTokenId, tokenURIs[newTokenId]);\r\n\r\n        return 1;\r\n    }\r\n\r\n    function getUserNFTs(address _creator) public \r\n                                view returns(uint[] memory _tokens) {\r\n        return user_to_tokens[_creator];\r\n    }\r\n\r\n    function getTokenUri(uint _tokenId) public \r\n                                view returns(string memory tokenUri_){\r\n        return tokenURIs[_tokenId];\r\n    }\r\n\r\n    function tokenURI(uint256 tokenId) public view virtual override returns (string memory _uri) {\r\n        require(_exists(tokenId), \"ERC721Metadata: URI query for nonexistent token\");\r\n\r\n        string memory baseURI = _baseURI();\r\n        return bytes(baseURI).length > 0\r\n            ? string(abi.encodePacked(baseURI, tokenURIs[tokenId]))\r\n            : '';\r\n    }\r\n\r\n    function setBaseUrl(string memory baseUri_) public onlyOwner {\r\n        baseUri = baseUri_;\r\n    }\r\n\r\n    function _baseURI() internal override view returns(string memory _base_URI){\r\n        return baseUri;\r\n    }\r\n\r\n}",
  "sourcePath": "E:\\Projects\\BlockchainBootcamp\\open-nft-marketplace\\contracts\\OpenNFT.sol",
  "compiler": {
    "name": "solc",
    "version": "0.8.3+commit.8d00100c.Emscripten.clang"
  },
  "schemaVersion": "3.3.4",
  "updatedAt": "2021-03-24T07:05:46.006Z",
  "networkType": "ethereum",
  "devdoc": {
    "kind": "dev",
    "methods": {
      "approve(address,uint256)": {
        "details": "See {IERC721-approve}."
      },
      "balanceOf(address)": {
        "details": "See {IERC721-balanceOf}."
      },
      "getApproved(uint256)": {
        "details": "See {IERC721-getApproved}."
      },
      "isApprovedForAll(address,address)": {
        "details": "See {IERC721-isApprovedForAll}."
      },
      "name()": {
        "details": "See {IERC721Metadata-name}."
      },
      "owner()": {
        "details": "Returns the address of the current owner."
      },
      "ownerOf(uint256)": {
        "details": "See {IERC721-ownerOf}."
      },
      "renounceOwnership()": {
        "details": "Leaves the contract without owner. It will not be possible to call `onlyOwner` functions anymore. Can only be called by the current owner. NOTE: Renouncing ownership will leave the contract without an owner, thereby removing any functionality that is only available to the owner."
      },
      "safeTransferFrom(address,address,uint256)": {
        "details": "See {IERC721-safeTransferFrom}."
      },
      "safeTransferFrom(address,address,uint256,bytes)": {
        "details": "See {IERC721-safeTransferFrom}."
      },
      "setApprovalForAll(address,bool)": {
        "details": "See {IERC721-setApprovalForAll}."
      },
      "supportsInterface(bytes4)": {
        "details": "See {IERC165-supportsInterface}."
      },
      "symbol()": {
        "details": "See {IERC721Metadata-symbol}."
      },
      "tokenURI(uint256)": {
        "details": "See {IERC721Metadata-tokenURI}."
      },
      "transferFrom(address,address,uint256)": {
        "details": "See {IERC721-transferFrom}."
      },
      "transferOwnership(address)": {
        "details": "Transfers ownership of the contract to a new account (`newOwner`). Can only be called by the current owner."
      }
    },
    "version": 1
  },
  "userdoc": {
    "kind": "user",
    "methods": {},
    "version": 1
  }
}