{
  "contractName": "OpenNFT",
  "abi": [
    {
      "inputs": [
        {
          "internalType": "string",
          "name": "_name",
          "type": "string"
        },
        {
          "internalType": "string",
          "name": "_symbol",
          "type": "string"
        }
      ],
      "stateMutability": "nonpayable",
      "type": "constructor"
    },
    {
      "anonymous": false,
      "inputs": [
        {
          "indexed": true,
          "internalType": "address",
          "name": "owner",
          "type": "address"
        },
        {
          "indexed": true,
          "internalType": "address",
          "name": "approved",
          "type": "address"
        },
        {
          "indexed": true,
          "internalType": "uint256",
          "name": "tokenId",
          "type": "uint256"
        }
      ],
      "name": "Approval",
      "type": "event"
    },
    {
      "anonymous": false,
      "inputs": [
        {
          "indexed": true,
          "internalType": "address",
          "name": "owner",
          "type": "address"
        },
        {
          "indexed": true,
          "internalType": "address",
          "name": "operator",
          "type": "address"
        },
        {
          "indexed": false,
          "internalType": "bool",
          "name": "approved",
          "type": "bool"
        }
      ],
      "name": "ApprovalForAll",
      "type": "event"
    },
    {
      "anonymous": false,
      "inputs": [
        {
          "indexed": false,
          "internalType": "uint256",
          "name": "_time",
          "type": "uint256"
        },
        {
          "indexed": false,
          "internalType": "address",
          "name": "_caller",
          "type": "address"
        }
      ],
      "name": "NFTInitialised",
      "type": "event"
    },
    {
      "anonymous": false,
      "inputs": [
        {
          "indexed": false,
          "internalType": "address",
          "name": "creator",
          "type": "address"
        },
        {
          "indexed": false,
          "internalType": "uint256",
          "name": "tokenId",
          "type": "uint256"
        },
        {
          "indexed": false,
          "internalType": "string",
          "name": "tokenUri",
          "type": "string"
        },
        {
          "indexed": false,
          "internalType": "string",
          "name": "caption",
          "type": "string"
        }
      ],
      "name": "NftTokenCreated",
      "type": "event"
    },
    {
      "anonymous": false,
      "inputs": [
        {
          "indexed": true,
          "internalType": "address",
          "name": "previousOwner",
          "type": "address"
        },
        {
          "indexed": true,
          "internalType": "address",
          "name": "newOwner",
          "type": "address"
        }
      ],
      "name": "OwnershipTransferred",
      "type": "event"
    },
    {
      "anonymous": false,
      "inputs": [
        {
          "indexed": true,
          "internalType": "address",
          "name": "from",
          "type": "address"
        },
        {
          "indexed": true,
          "internalType": "address",
          "name": "to",
          "type": "address"
        },
        {
          "indexed": true,
          "internalType": "uint256",
          "name": "tokenId",
          "type": "uint256"
        }
      ],
      "name": "Transfer",
      "type": "event"
    },
    {
      "stateMutability": "nonpayable",
      "type": "fallback"
    },
    {
      "inputs": [
        {
          "internalType": "address",
          "name": "to",
          "type": "address"
        },
        {
          "internalType": "uint256",
          "name": "tokenId",
          "type": "uint256"
        }
      ],
      "name": "approve",
      "outputs": [],
      "stateMutability": "nonpayable",
      "type": "function"
    },
    {
      "inputs": [
        {
          "internalType": "address",
          "name": "owner",
          "type": "address"
        }
      ],
      "name": "balanceOf",
      "outputs": [
        {
          "internalType": "uint256",
          "name": "",
          "type": "uint256"
        }
      ],
      "stateMutability": "view",
      "type": "function",
      "constant": true
    },
    {
      "inputs": [
        {
          "internalType": "uint256",
          "name": "tokenId",
          "type": "uint256"
        }
      ],
      "name": "getApproved",
      "outputs": [
        {
          "internalType": "address",
          "name": "",
          "type": "address"
        }
      ],
      "stateMutability": "view",
      "type": "function",
      "constant": true
    },
    {
      "inputs": [
        {
          "internalType": "address",
          "name": "owner",
          "type": "address"
        },
        {
          "internalType": "address",
          "name": "operator",
          "type": "address"
        }
      ],
      "name": "isApprovedForAll",
      "outputs": [
        {
          "internalType": "bool",
          "name": "",
          "type": "bool"
        }
      ],
      "stateMutability": "view",
      "type": "function",
      "constant": true
    },
    {
      "inputs": [],
      "name": "name",
      "outputs": [
        {
          "internalType": "string",
          "name": "",
          "type": "string"
        }
      ],
      "stateMutability": "view",
      "type": "function",
      "constant": true
    },
    {
      "inputs": [],
      "name": "owner",
      "outputs": [
        {
          "internalType": "address",
          "name": "",
          "type": "address"
        }
      ],
      "stateMutability": "view",
      "type": "function",
      "constant": true
    },
    {
      "inputs": [
        {
          "internalType": "uint256",
          "name": "tokenId",
          "type": "uint256"
        }
      ],
      "name": "ownerOf",
      "outputs": [
        {
          "internalType": "address",
          "name": "",
          "type": "address"
        }
      ],
      "stateMutability": "view",
      "type": "function",
      "constant": true
    },
    {
      "inputs": [],
      "name": "renounceOwnership",
      "outputs": [],
      "stateMutability": "nonpayable",
      "type": "function"
    },
    {
      "inputs": [
        {
          "internalType": "address",
          "name": "from",
          "type": "address"
        },
        {
          "internalType": "address",
          "name": "to",
          "type": "address"
        },
        {
          "internalType": "uint256",
          "name": "tokenId",
          "type": "uint256"
        }
      ],
      "name": "safeTransferFrom",
      "outputs": [],
      "stateMutability": "nonpayable",
      "type": "function"
    },
    {
      "inputs": [
        {
          "internalType": "address",
          "name": "from",
          "type": "address"
        },
        {
          "internalType": "address",
          "name": "to",
          "type": "address"
        },
        {
          "internalType": "uint256",
          "name": "tokenId",
          "type": "uint256"
        },
        {
          "internalType": "bytes",
          "name": "_data",
          "type": "bytes"
        }
      ],
      "name": "safeTransferFrom",
      "outputs": [],
      "stateMutability": "nonpayable",
      "type": "function"
    },
    {
      "inputs": [
        {
          "internalType": "address",
          "name": "operator",
          "type": "address"
        },
        {
          "internalType": "bool",
          "name": "approved",
          "type": "bool"
        }
      ],
      "name": "setApprovalForAll",
      "outputs": [],
      "stateMutability": "nonpayable",
      "type": "function"
    },
    {
      "inputs": [
        {
          "internalType": "bytes4",
          "name": "interfaceId",
          "type": "bytes4"
        }
      ],
      "name": "supportsInterface",
      "outputs": [
        {
          "internalType": "bool",
          "name": "",
          "type": "bool"
        }
      ],
      "stateMutability": "view",
      "type": "function",
      "constant": true
    },
    {
      "inputs": [],
      "name": "symbol",
      "outputs": [
        {
          "internalType": "string",
          "name": "",
          "type": "string"
        }
      ],
      "stateMutability": "view",
      "type": "function",
      "constant": true
    },
    {
      "inputs": [],
      "name": "tokenId",
      "outputs": [
        {
          "internalType": "uint256",
          "name": "_value",
          "type": "uint256"
        }
      ],
      "stateMutability": "view",
      "type": "function",
      "constant": true
    },
    {
      "inputs": [
        {
          "internalType": "address",
          "name": "from",
          "type": "address"
        },
        {
          "internalType": "address",
          "name": "to",
          "type": "address"
        },
        {
          "internalType": "uint256",
          "name": "tokenId",
          "type": "uint256"
        }
      ],
      "name": "transferFrom",
      "outputs": [],
      "stateMutability": "nonpayable",
      "type": "function"
    },
    {
      "inputs": [
        {
          "internalType": "address",
          "name": "newOwner",
          "type": "address"
        }
      ],
      "name": "transferOwnership",
      "outputs": [],
      "stateMutability": "nonpayable",
      "type": "function"
    },
    {
      "inputs": [
        {
          "internalType": "address",
          "name": "_creator",
          "type": "address"
        },
        {
          "internalType": "string",
          "name": "_tokenHash",
          "type": "string"
        },
        {
          "internalType": "string",
          "name": "_tokenCaption",
          "type": "string"
        }
      ],
      "name": "createNFT",
      "outputs": [
        {
          "internalType": "uint256",
          "name": "_reward",
          "type": "uint256"
        }
      ],
      "stateMutability": "nonpayable",
      "type": "function"
    },
    {
      "inputs": [
        {
          "internalType": "address",
          "name": "_creator",
          "type": "address"
        }
      ],
      "name": "getUserNFTs",
      "outputs": [
        {
          "internalType": "uint256[]",
          "name": "_tokens",
          "type": "uint256[]"
        }
      ],
      "stateMutability": "view",
      "type": "function",
      "constant": true
    },
    {
      "inputs": [
        {
          "internalType": "uint256",
          "name": "_tokenId",
          "type": "uint256"
        }
      ],
      "name": "getTokenCreator",
      "outputs": [
        {
          "internalType": "address",
          "name": "creator",
          "type": "address"
        }
      ],
      "stateMutability": "view",
      "type": "function",
      "constant": true
    },
    {
      "inputs": [
        {
          "internalType": "uint256",
          "name": "_tokenId",
          "type": "uint256"
        }
      ],
      "name": "getTokenCaption",
      "outputs": [
        {
          "internalType": "string",
          "name": "caption",
          "type": "string"
        }
      ],
      "stateMutability": "view",
      "type": "function",
      "constant": true
    },
    {
      "inputs": [
        {
          "internalType": "uint256",
          "name": "_tokenId",
          "type": "uint256"
        }
      ],
      "name": "getTokenUri",
      "outputs": [
        {
          "internalType": "string",
          "name": "tokenUri_",
          "type": "string"
        }
      ],
      "stateMutability": "view",
      "type": "function",
      "constant": true
    },
    {
      "inputs": [
        {
          "internalType": "uint256",
          "name": "_tokenId",
          "type": "uint256"
        }
      ],
      "name": "tokenURI",
      "outputs": [
        {
          "internalType": "string",
          "name": "_uri",
          "type": "string"
        }
      ],
      "stateMutability": "view",
      "type": "function",
      "constant": true
    },
    {
      "inputs": [
        {
          "internalType": "string",
          "name": "baseUri_",
          "type": "string"
        }
      ],
      "name": "setBaseUrl",
      "outputs": [],
      "stateMutability": "nonpayable",
      "type": "function"
    }
  ],
  "bytecode": "0x60806040523480156200001157600080fd5b5060405162003aca38038062003aca8339818101604052810190620000379190620003a6565b818181600090805190602001906200005192919062000284565b5080600190805190602001906200006a92919062000284565b50505060006200007f620001a760201b60201c565b905080600660006101000a81548173ffffffffffffffffffffffffffffffffffffffff021916908373ffffffffffffffffffffffffffffffffffffffff1602179055508073ffffffffffffffffffffffffffffffffffffffff16600073ffffffffffffffffffffffffffffffffffffffff167f8be0079c531659141344cd1fd0a4f28419497f9722a3daafe3b4186f6b6457e060405160405180910390a350620001646040518060400160405280601481526020017f697066732e696e667572612e696f2f697066732f000000000000000000000000815250620001af60201b60201c565b7f451a95fdf4424d3f1fc736b5787f5b9186e21c8af9c4cef020067be638e1ad0e42336040516200019792919062000484565b60405180910390a1505062000699565b600033905090565b620001bf620001a760201b60201c565b73ffffffffffffffffffffffffffffffffffffffff16620001e56200025a60201b60201c565b73ffffffffffffffffffffffffffffffffffffffff16146200023e576040517f08c379a0000000000000000000000000000000000000000000000000000000008152600401620002359062000462565b60405180910390fd5b80600890805190602001906200025692919062000284565b5050565b6000600660009054906101000a900473ffffffffffffffffffffffffffffffffffffffff16905090565b828054620002929062000595565b90600052602060002090601f016020900481019282620002b6576000855562000302565b82601f10620002d157805160ff191683800117855562000302565b8280016001018555821562000302579182015b8281111562000301578251825591602001919060010190620002e4565b5b50905062000311919062000315565b5090565b5b808211156200033057600081600090555060010162000316565b5090565b60006200034b6200034584620004da565b620004b1565b9050828152602081018484840111156200036457600080fd5b620003718482856200055f565b509392505050565b600082601f8301126200038b57600080fd5b81516200039d84826020860162000334565b91505092915050565b60008060408385031215620003ba57600080fd5b600083015167ffffffffffffffff811115620003d557600080fd5b620003e38582860162000379565b925050602083015167ffffffffffffffff8111156200040157600080fd5b6200040f8582860162000379565b9150509250929050565b620004248162000521565b82525050565b60006200043960208362000510565b9150620004468262000670565b602082019050919050565b6200045c8162000555565b82525050565b600060208201905081810360008301526200047d816200042a565b9050919050565b60006040820190506200049b600083018562000451565b620004aa602083018462000419565b9392505050565b6000620004bd620004d0565b9050620004cb8282620005cb565b919050565b6000604051905090565b600067ffffffffffffffff821115620004f857620004f762000630565b5b62000503826200065f565b9050602081019050919050565b600082825260208201905092915050565b60006200052e8262000535565b9050919050565b600073ffffffffffffffffffffffffffffffffffffffff82169050919050565b6000819050919050565b60005b838110156200057f57808201518184015260208101905062000562565b838111156200058f576000848401525b50505050565b60006002820490506001821680620005ae57607f821691505b60208210811415620005c557620005c462000601565b5b50919050565b620005d6826200065f565b810181811067ffffffffffffffff82111715620005f857620005f762000630565b5b80604052505050565b7f4e487b7100000000000000000000000000000000000000000000000000000000600052602260045260246000fd5b7f4e487b7100000000000000000000000000000000000000000000000000000000600052604160045260246000fd5b6000601f19601f8301169050919050565b7f4f776e61626c653a2063616c6c6572206973206e6f7420746865206f776e6572600082015250565b61342180620006a96000396000f3fe608060405234801561001057600080fd5b50600436106101515760003560e01c8063715018a6116100c3578063b88d4fde1161007c578063b88d4fde146103c9578063c7c3268b146103e5578063c87b56dd14610401578063e985e9c514610431578063f2fde38b14610461578063f88670a51461047d57610152565b8063715018a6146103075780638ad91345146103115780638da5cb5b14610341578063934689a91461035f57806395d89b411461038f578063a22cb465146103ad57610152565b806317d70f7c1161011557806317d70f7c1461022157806323b872dd1461023f57806342842e0e1461025b57806352de4ee5146102775780636352211e146102a757806370a08231146102d757610152565b806301ffc9a71461015757806306fdde0314610187578063081812fc146101a5578063095ea7b3146101d55780630b564a7c146101f157610152565b5b600080fd5b610171600480360381019061016c91906122c3565b6104ad565b60405161017e919061293d565b60405180910390f35b61018f61058f565b60405161019c9190612958565b60405180910390f35b6101bf60048036038101906101ba9190612356565b610621565b6040516101cc9190612861565b60405180910390f35b6101ef60048036038101906101ea9190612287565b6106a6565b005b61020b60048036038101906102069190612208565b6107be565b6040516102189190612b9a565b60405180910390f35b6102296109ea565b6040516102369190612b9a565b60405180910390f35b61025960048036038101906102549190612102565b6109f6565b005b61027560048036038101906102709190612102565b610a56565b005b610291600480360381019061028c919061209d565b610a76565b60405161029e919061291b565b60405180910390f35b6102c160048036038101906102bc9190612356565b610b0d565b6040516102ce9190612861565b60405180910390f35b6102f160048036038101906102ec919061209d565b610bbf565b6040516102fe9190612b9a565b60405180910390f35b61030f610c77565b005b61032b60048036038101906103269190612356565b610db4565b6040516103389190612958565b60405180910390f35b610349610e59565b6040516103569190612861565b60405180910390f35b61037960048036038101906103749190612356565b610e83565b6040516103869190612861565b60405180910390f35b610397610ec0565b6040516103a49190612958565b60405180910390f35b6103c760048036038101906103c291906121cc565b610f52565b005b6103e360048036038101906103de9190612151565b6110d3565b005b6103ff60048036038101906103fa9190612315565b611135565b005b61041b60048036038101906104169190612356565b6111cb565b6040516104289190612958565b60405180910390f35b61044b600480360381019061044691906120c6565b61127c565b604051610458919061293d565b60405180910390f35b61047b6004803603810190610476919061209d565b611310565b005b61049760048036038101906104929190612356565b6114bc565b6040516104a49190612958565b60405180910390f35b60007f80ac58cd000000000000000000000000000000000000000000000000000000007bffffffffffffffffffffffffffffffffffffffffffffffffffffffff1916827bffffffffffffffffffffffffffffffffffffffffffffffffffffffff1916148061057857507f5b5e139f000000000000000000000000000000000000000000000000000000007bffffffffffffffffffffffffffffffffffffffffffffffffffffffff1916827bffffffffffffffffffffffffffffffffffffffffffffffffffffffff1916145b80610588575061058782611561565b5b9050919050565b60606000805461059e90612e0d565b80601f01602080910402602001604051908101604052809291908181526020018280546105ca90612e0d565b80156106175780601f106105ec57610100808354040283529160200191610617565b820191906000526020600020905b8154815290600101906020018083116105fa57829003601f168201915b5050505050905090565b600061062c826115cb565b61066b576040517f08c379a000000000000000000000000000000000000000000000000000000000815260040161066290612ada565b60405180910390fd5b6004600083815260200190815260200160002060009054906101000a900473ffffffffffffffffffffffffffffffffffffffff169050919050565b60006106b182610b0d565b90508073ffffffffffffffffffffffffffffffffffffffff168373ffffffffffffffffffffffffffffffffffffffff161415610722576040517f08c379a000000000000000000000000000000000000000000000000000000000815260040161071990612b5a565b60405180910390fd5b8073ffffffffffffffffffffffffffffffffffffffff16610741611637565b73ffffffffffffffffffffffffffffffffffffffff161480610770575061076f8161076a611637565b61127c565b5b6107af576040517f08c379a00000000000000000000000000000000000000000000000000000000081526004016107a690612a5a565b60405180910390fd5b6107b9838361163f565b505050565b6000826009816040516107d19190612826565b908152602001604051809103902060009054906101000a900460ff161561082d576040517f08c379a000000000000000000000000000000000000000000000000000000000815260040161082490612a3a565b60405180910390fd5b61083760076116f8565b6000610843600761170e565b905061084f868261171c565b84600a60008381526020019081526020016000209080519060200190610876929190611ec1565b50600d60008773ffffffffffffffffffffffffffffffffffffffff1673ffffffffffffffffffffffffffffffffffffffff16815260200190815260200160002081908060018154018082558091505060019003906000526020600020016000909190919091505585600b600083815260200190815260200160002060006101000a81548173ffffffffffffffffffffffffffffffffffffffff021916908373ffffffffffffffffffffffffffffffffffffffff16021790555083600c60008381526020019081526020016000209080519060200190610956929190611ec1565b5060016009866040516109699190612826565b908152602001604051809103902060006101000a81548160ff0219169083151502179055507fdaf8159b04ef952f3336017b938091adc1bb7b4256cd5c4a539ef8da79d2ed658682600a6000858152602001908152602001600020876040516109d594939291906128c8565b60405180910390a16001925050509392505050565b60078060000154905081565b610a07610a01611637565b826118ea565b610a46576040517f08c379a0000000000000000000000000000000000000000000000000000000008152600401610a3d90612b7a565b60405180910390fd5b610a518383836119c8565b505050565b610a71838383604051806020016040528060008152506110d3565b505050565b6060600d60008373ffffffffffffffffffffffffffffffffffffffff1673ffffffffffffffffffffffffffffffffffffffff168152602001908152602001600020805480602002602001604051908101604052809291908181526020018280548015610b0157602002820191906000526020600020905b815481526020019060010190808311610aed575b50505050509050919050565b6000806002600084815260200190815260200160002060009054906101000a900473ffffffffffffffffffffffffffffffffffffffff169050600073ffffffffffffffffffffffffffffffffffffffff168173ffffffffffffffffffffffffffffffffffffffff161415610bb6576040517f08c379a0000000000000000000000000000000000000000000000000000000008152600401610bad90612a9a565b60405180910390fd5b80915050919050565b60008073ffffffffffffffffffffffffffffffffffffffff168273ffffffffffffffffffffffffffffffffffffffff161415610c30576040517f08c379a0000000000000000000000000000000000000000000000000000000008152600401610c2790612a7a565b60405180910390fd5b600360008373ffffffffffffffffffffffffffffffffffffffff1673ffffffffffffffffffffffffffffffffffffffff168152602001908152602001600020549050919050565b610c7f611637565b73ffffffffffffffffffffffffffffffffffffffff16610c9d610e59565b73ffffffffffffffffffffffffffffffffffffffff1614610cf3576040517f08c379a0000000000000000000000000000000000000000000000000000000008152600401610cea90612afa565b60405180910390fd5b600073ffffffffffffffffffffffffffffffffffffffff16600660009054906101000a900473ffffffffffffffffffffffffffffffffffffffff1673ffffffffffffffffffffffffffffffffffffffff167f8be0079c531659141344cd1fd0a4f28419497f9722a3daafe3b4186f6b6457e060405160405180910390a36000600660006101000a81548173ffffffffffffffffffffffffffffffffffffffff021916908373ffffffffffffffffffffffffffffffffffffffff160217905550565b6060600a60008381526020019081526020016000208054610dd490612e0d565b80601f0160208091040260200160405190810160405280929190818152602001828054610e0090612e0d565b8015610e4d5780601f10610e2257610100808354040283529160200191610e4d565b820191906000526020600020905b815481529060010190602001808311610e3057829003601f168201915b50505050509050919050565b6000600660009054906101000a900473ffffffffffffffffffffffffffffffffffffffff16905090565b6000600b600083815260200190815260200160002060009054906101000a900473ffffffffffffffffffffffffffffffffffffffff169050919050565b606060018054610ecf90612e0d565b80601f0160208091040260200160405190810160405280929190818152602001828054610efb90612e0d565b8015610f485780601f10610f1d57610100808354040283529160200191610f48565b820191906000526020600020905b815481529060010190602001808311610f2b57829003601f168201915b5050505050905090565b610f5a611637565b73ffffffffffffffffffffffffffffffffffffffff168273ffffffffffffffffffffffffffffffffffffffff161415610fc8576040517f08c379a0000000000000000000000000000000000000000000000000000000008152600401610fbf906129fa565b60405180910390fd5b8060056000610fd5611637565b73ffffffffffffffffffffffffffffffffffffffff1673ffffffffffffffffffffffffffffffffffffffff16815260200190815260200160002060008473ffffffffffffffffffffffffffffffffffffffff1673ffffffffffffffffffffffffffffffffffffffff16815260200190815260200160002060006101000a81548160ff0219169083151502179055508173ffffffffffffffffffffffffffffffffffffffff16611082611637565b73ffffffffffffffffffffffffffffffffffffffff167f17307eab39ab6107e8899845ad3d59bd9653f200f220920489ca2b5937696c31836040516110c7919061293d565b60405180910390a35050565b6110e46110de611637565b836118ea565b611123576040517f08c379a000000000000000000000000000000000000000000000000000000000815260040161111a90612b7a565b60405180910390fd5b61112f84848484611c24565b50505050565b61113d611637565b73ffffffffffffffffffffffffffffffffffffffff1661115b610e59565b73ffffffffffffffffffffffffffffffffffffffff16146111b1576040517f08c379a00000000000000000000000000000000000000000000000000000000081526004016111a890612afa565b60405180910390fd5b80600890805190602001906111c7929190611ec1565b5050565b60606111d6826115cb565b611215576040517f08c379a000000000000000000000000000000000000000000000000000000000815260040161120c90612b3a565b60405180910390fd5b600061121f611c80565b9050600081511161123f5760405180602001604052806000815250611274565b80600a600085815260200190815260200160002060405160200161126492919061283d565b6040516020818303038152906040525b915050919050565b6000600560008473ffffffffffffffffffffffffffffffffffffffff1673ffffffffffffffffffffffffffffffffffffffff16815260200190815260200160002060008373ffffffffffffffffffffffffffffffffffffffff1673ffffffffffffffffffffffffffffffffffffffff16815260200190815260200160002060009054906101000a900460ff16905092915050565b611318611637565b73ffffffffffffffffffffffffffffffffffffffff16611336610e59565b73ffffffffffffffffffffffffffffffffffffffff161461138c576040517f08c379a000000000000000000000000000000000000000000000000000000000815260040161138390612afa565b60405180910390fd5b600073ffffffffffffffffffffffffffffffffffffffff168173ffffffffffffffffffffffffffffffffffffffff1614156113fc576040517f08c379a00000000000000000000000000000000000000000000000000000000081526004016113f39061299a565b60405180910390fd5b8073ffffffffffffffffffffffffffffffffffffffff16600660009054906101000a900473ffffffffffffffffffffffffffffffffffffffff1673ffffffffffffffffffffffffffffffffffffffff167f8be0079c531659141344cd1fd0a4f28419497f9722a3daafe3b4186f6b6457e060405160405180910390a380600660006101000a81548173ffffffffffffffffffffffffffffffffffffffff021916908373ffffffffffffffffffffffffffffffffffffffff16021790555050565b6060600c600083815260200190815260200160002080546114dc90612e0d565b80601f016020809104026020016040519081016040528092919081815260200182805461150890612e0d565b80156115555780601f1061152a57610100808354040283529160200191611555565b820191906000526020600020905b81548152906001019060200180831161153857829003601f168201915b50505050509050919050565b60007f01ffc9a7000000000000000000000000000000000000000000000000000000007bffffffffffffffffffffffffffffffffffffffffffffffffffffffff1916827bffffffffffffffffffffffffffffffffffffffffffffffffffffffff1916149050919050565b60008073ffffffffffffffffffffffffffffffffffffffff166002600084815260200190815260200160002060009054906101000a900473ffffffffffffffffffffffffffffffffffffffff1673ffffffffffffffffffffffffffffffffffffffff1614159050919050565b600033905090565b816004600083815260200190815260200160002060006101000a81548173ffffffffffffffffffffffffffffffffffffffff021916908373ffffffffffffffffffffffffffffffffffffffff160217905550808273ffffffffffffffffffffffffffffffffffffffff166116b283610b0d565b73ffffffffffffffffffffffffffffffffffffffff167f8c5be1e5ebec7d5bd14f71427d1e84f3dd0314c0f7b2291e5b200ac8c7c3b92560405160405180910390a45050565b6001816000016000828254019250508190555050565b600081600001549050919050565b600073ffffffffffffffffffffffffffffffffffffffff168273ffffffffffffffffffffffffffffffffffffffff16141561178c576040517f08c379a000000000000000000000000000000000000000000000000000000000815260040161178390612aba565b60405180910390fd5b611795816115cb565b156117d5576040517f08c379a00000000000000000000000000000000000000000000000000000000081526004016117cc906129ba565b60405180910390fd5b6117e160008383611d12565b6001600360008473ffffffffffffffffffffffffffffffffffffffff1673ffffffffffffffffffffffffffffffffffffffff16815260200190815260200160002060008282546118319190612ccd565b92505081905550816002600083815260200190815260200160002060006101000a81548173ffffffffffffffffffffffffffffffffffffffff021916908373ffffffffffffffffffffffffffffffffffffffff160217905550808273ffffffffffffffffffffffffffffffffffffffff16600073ffffffffffffffffffffffffffffffffffffffff167fddf252ad1be2c89b69c2b068fc378daa952ba7f163c4a11628f55a4df523b3ef60405160405180910390a45050565b60006118f5826115cb565b611934576040517f08c379a000000000000000000000000000000000000000000000000000000000815260040161192b90612a1a565b60405180910390fd5b600061193f83610b0d565b90508073ffffffffffffffffffffffffffffffffffffffff168473ffffffffffffffffffffffffffffffffffffffff1614806119ae57508373ffffffffffffffffffffffffffffffffffffffff1661199684610621565b73ffffffffffffffffffffffffffffffffffffffff16145b806119bf57506119be818561127c565b5b91505092915050565b8273ffffffffffffffffffffffffffffffffffffffff166119e882610b0d565b73ffffffffffffffffffffffffffffffffffffffff1614611a3e576040517f08c379a0000000000000000000000000000000000000000000000000000000008152600401611a3590612b1a565b60405180910390fd5b600073ffffffffffffffffffffffffffffffffffffffff168273ffffffffffffffffffffffffffffffffffffffff161415611aae576040517f08c379a0000000000000000000000000000000000000000000000000000000008152600401611aa5906129da565b60405180910390fd5b611ab9838383611d12565b611ac460008261163f565b6001600360008573ffffffffffffffffffffffffffffffffffffffff1673ffffffffffffffffffffffffffffffffffffffff1681526020019081526020016000206000828254611b149190612d23565b925050819055506001600360008473ffffffffffffffffffffffffffffffffffffffff1673ffffffffffffffffffffffffffffffffffffffff1681526020019081526020016000206000828254611b6b9190612ccd565b92505081905550816002600083815260200190815260200160002060006101000a81548173ffffffffffffffffffffffffffffffffffffffff021916908373ffffffffffffffffffffffffffffffffffffffff160217905550808273ffffffffffffffffffffffffffffffffffffffff168473ffffffffffffffffffffffffffffffffffffffff167fddf252ad1be2c89b69c2b068fc378daa952ba7f163c4a11628f55a4df523b3ef60405160405180910390a4505050565b611c2f8484846119c8565b611c3b84848484611d17565b611c7a576040517f08c379a0000000000000000000000000000000000000000000000000000000008152600401611c719061297a565b60405180910390fd5b50505050565b606060088054611c8f90612e0d565b80601f0160208091040260200160405190810160405280929190818152602001828054611cbb90612e0d565b8015611d085780601f10611cdd57610100808354040283529160200191611d08565b820191906000526020600020905b815481529060010190602001808311611ceb57829003601f168201915b5050505050905090565b505050565b6000611d388473ffffffffffffffffffffffffffffffffffffffff16611eae565b15611ea1578373ffffffffffffffffffffffffffffffffffffffff1663150b7a02611d61611637565b8786866040518563ffffffff1660e01b8152600401611d83949392919061287c565b602060405180830381600087803b158015611d9d57600080fd5b505af1925050508015611dce57506040513d601f19601f82011682018060405250810190611dcb91906122ec565b60015b611e51573d8060008114611dfe576040519150601f19603f3d011682016040523d82523d6000602084013e611e03565b606091505b50600081511415611e49576040517f08c379a0000000000000000000000000000000000000000000000000000000008152600401611e409061297a565b60405180910390fd5b805181602001fd5b63150b7a0260e01b7bffffffffffffffffffffffffffffffffffffffffffffffffffffffff1916817bffffffffffffffffffffffffffffffffffffffffffffffffffffffff191614915050611ea6565b600190505b949350505050565b600080823b905060008111915050919050565b828054611ecd90612e0d565b90600052602060002090601f016020900481019282611eef5760008555611f36565b82601f10611f0857805160ff1916838001178555611f36565b82800160010185558215611f36579182015b82811115611f35578251825591602001919060010190611f1a565b5b509050611f439190611f47565b5090565b5b80821115611f60576000816000905550600101611f48565b5090565b6000611f77611f7284612bda565b612bb5565b905082815260208101848484011115611f8f57600080fd5b611f9a848285612dcb565b509392505050565b6000611fb5611fb084612c0b565b612bb5565b905082815260208101848484011115611fcd57600080fd5b611fd8848285612dcb565b509392505050565b600081359050611fef8161338f565b92915050565b600081359050612004816133a6565b92915050565b600081359050612019816133bd565b92915050565b60008151905061202e816133bd565b92915050565b600082601f83011261204557600080fd5b8135612055848260208601611f64565b91505092915050565b600082601f83011261206f57600080fd5b813561207f848260208601611fa2565b91505092915050565b600081359050612097816133d4565b92915050565b6000602082840312156120af57600080fd5b60006120bd84828501611fe0565b91505092915050565b600080604083850312156120d957600080fd5b60006120e785828601611fe0565b92505060206120f885828601611fe0565b9150509250929050565b60008060006060848603121561211757600080fd5b600061212586828701611fe0565b935050602061213686828701611fe0565b925050604061214786828701612088565b9150509250925092565b6000806000806080858703121561216757600080fd5b600061217587828801611fe0565b945050602061218687828801611fe0565b935050604061219787828801612088565b925050606085013567ffffffffffffffff8111156121b457600080fd5b6121c087828801612034565b91505092959194509250565b600080604083850312156121df57600080fd5b60006121ed85828601611fe0565b92505060206121fe85828601611ff5565b9150509250929050565b60008060006060848603121561221d57600080fd5b600061222b86828701611fe0565b935050602084013567ffffffffffffffff81111561224857600080fd5b6122548682870161205e565b925050604084013567ffffffffffffffff81111561227157600080fd5b61227d8682870161205e565b9150509250925092565b6000806040838503121561229a57600080fd5b60006122a885828601611fe0565b92505060206122b985828601612088565b9150509250929050565b6000602082840312156122d557600080fd5b60006122e38482850161200a565b91505092915050565b6000602082840312156122fe57600080fd5b600061230c8482850161201f565b91505092915050565b60006020828403121561232757600080fd5b600082013567ffffffffffffffff81111561234157600080fd5b61234d8482850161205e565b91505092915050565b60006020828403121561236857600080fd5b600061237684828501612088565b91505092915050565b600061238b8383612808565b60208301905092915050565b6123a081612d57565b82525050565b60006123b182612c61565b6123bb8185612c8f565b93506123c683612c3c565b8060005b838110156123f75781516123de888261237f565b97506123e983612c82565b9250506001810190506123ca565b5085935050505092915050565b61240d81612d69565b82525050565b600061241e82612c6c565b6124288185612ca0565b9350612438818560208601612dda565b61244181612efd565b840191505092915050565b600061245782612c77565b6124618185612cb1565b9350612471818560208601612dda565b61247a81612efd565b840191505092915050565b600061249082612c77565b61249a8185612cc2565b93506124aa818560208601612dda565b80840191505092915050565b600081546124c381612e0d565b6124cd8186612cb1565b945060018216600081146124e857600181146124fa5761252d565b60ff198316865260208601935061252d565b61250385612c4c565b60005b8381101561252557815481890152600182019150602081019050612506565b808801955050505b50505092915050565b6000815461254381612e0d565b61254d8186612cc2565b945060018216600081146125685760018114612579576125ac565b60ff198316865281860193506125ac565b61258285612c4c565b60005b838110156125a457815481890152600182019150602081019050612585565b838801955050505b50505092915050565b60006125c2603283612cb1565b91506125cd82612f0e565b604082019050919050565b60006125e5602683612cb1565b91506125f082612f5d565b604082019050919050565b6000612608601c83612cb1565b915061261382612fac565b602082019050919050565b600061262b602483612cb1565b915061263682612fd5565b604082019050919050565b600061264e601983612cb1565b915061265982613024565b602082019050919050565b6000612671602c83612cb1565b915061267c8261304d565b604082019050919050565b6000612694601383612cb1565b915061269f8261309c565b602082019050919050565b60006126b7603883612cb1565b91506126c2826130c5565b604082019050919050565b60006126da602a83612cb1565b91506126e582613114565b604082019050919050565b60006126fd602983612cb1565b915061270882613163565b604082019050919050565b6000612720602083612cb1565b915061272b826131b2565b602082019050919050565b6000612743602c83612cb1565b915061274e826131db565b604082019050919050565b6000612766602083612cb1565b91506127718261322a565b602082019050919050565b6000612789602983612cb1565b915061279482613253565b604082019050919050565b60006127ac602f83612cb1565b91506127b7826132a2565b604082019050919050565b60006127cf602183612cb1565b91506127da826132f1565b604082019050919050565b60006127f2603183612cb1565b91506127fd82613340565b604082019050919050565b61281181612dc1565b82525050565b61282081612dc1565b82525050565b60006128328284612485565b915081905092915050565b60006128498285612485565b91506128558284612536565b91508190509392505050565b60006020820190506128766000830184612397565b92915050565b60006080820190506128916000830187612397565b61289e6020830186612397565b6128ab6040830185612817565b81810360608301526128bd8184612413565b905095945050505050565b60006080820190506128dd6000830187612397565b6128ea6020830186612817565b81810360408301526128fc81856124b6565b90508181036060830152612910818461244c565b905095945050505050565b6000602082019050818103600083015261293581846123a6565b905092915050565b60006020820190506129526000830184612404565b92915050565b60006020820190508181036000830152612972818461244c565b905092915050565b60006020820190508181036000830152612993816125b5565b9050919050565b600060208201905081810360008301526129b3816125d8565b9050919050565b600060208201905081810360008301526129d3816125fb565b9050919050565b600060208201905081810360008301526129f38161261e565b9050919050565b60006020820190508181036000830152612a1381612641565b9050919050565b60006020820190508181036000830152612a3381612664565b9050919050565b60006020820190508181036000830152612a5381612687565b9050919050565b60006020820190508181036000830152612a73816126aa565b9050919050565b60006020820190508181036000830152612a93816126cd565b9050919050565b60006020820190508181036000830152612ab3816126f0565b9050919050565b60006020820190508181036000830152612ad381612713565b9050919050565b60006020820190508181036000830152612af381612736565b9050919050565b60006020820190508181036000830152612b1381612759565b9050919050565b60006020820190508181036000830152612b338161277c565b9050919050565b60006020820190508181036000830152612b538161279f565b9050919050565b60006020820190508181036000830152612b73816127c2565b9050919050565b60006020820190508181036000830152612b93816127e5565b9050919050565b6000602082019050612baf6000830184612817565b92915050565b6000612bbf612bd0565b9050612bcb8282612e3f565b919050565b6000604051905090565b600067ffffffffffffffff821115612bf557612bf4612ece565b5b612bfe82612efd565b9050602081019050919050565b600067ffffffffffffffff821115612c2657612c25612ece565b5b612c2f82612efd565b9050602081019050919050565b6000819050602082019050919050565b60008190508160005260206000209050919050565b600081519050919050565b600081519050919050565b600081519050919050565b6000602082019050919050565b600082825260208201905092915050565b600082825260208201905092915050565b600082825260208201905092915050565b600081905092915050565b6000612cd882612dc1565b9150612ce383612dc1565b9250827fffffffffffffffffffffffffffffffffffffffffffffffffffffffffffffffff03821115612d1857612d17612e70565b5b828201905092915050565b6000612d2e82612dc1565b9150612d3983612dc1565b925082821015612d4c57612d4b612e70565b5b828203905092915050565b6000612d6282612da1565b9050919050565b60008115159050919050565b60007fffffffff0000000000000000000000000000000000000000000000000000000082169050919050565b600073ffffffffffffffffffffffffffffffffffffffff82169050919050565b6000819050919050565b82818337600083830152505050565b60005b83811015612df8578082015181840152602081019050612ddd565b83811115612e07576000848401525b50505050565b60006002820490506001821680612e2557607f821691505b60208210811415612e3957612e38612e9f565b5b50919050565b612e4882612efd565b810181811067ffffffffffffffff82111715612e6757612e66612ece565b5b80604052505050565b7f4e487b7100000000000000000000000000000000000000000000000000000000600052601160045260246000fd5b7f4e487b7100000000000000000000000000000000000000000000000000000000600052602260045260246000fd5b7f4e487b7100000000000000000000000000000000000000000000000000000000600052604160045260246000fd5b6000601f19601f8301169050919050565b7f4552433732313a207472616e7366657220746f206e6f6e20455243373231526560008201527f63656976657220696d706c656d656e7465720000000000000000000000000000602082015250565b7f4f776e61626c653a206e6577206f776e657220697320746865207a65726f206160008201527f6464726573730000000000000000000000000000000000000000000000000000602082015250565b7f4552433732313a20746f6b656e20616c7265616479206d696e74656400000000600082015250565b7f4552433732313a207472616e7366657220746f20746865207a65726f2061646460008201527f7265737300000000000000000000000000000000000000000000000000000000602082015250565b7f4552433732313a20617070726f766520746f2063616c6c657200000000000000600082015250565b7f4552433732313a206f70657261746f7220717565727920666f72206e6f6e657860008201527f697374656e7420746f6b656e0000000000000000000000000000000000000000602082015250565b7f4e465420616c7265616479206372656174656400000000000000000000000000600082015250565b7f4552433732313a20617070726f76652063616c6c6572206973206e6f74206f7760008201527f6e6572206e6f7220617070726f76656420666f7220616c6c0000000000000000602082015250565b7f4552433732313a2062616c616e636520717565727920666f7220746865207a6560008201527f726f206164647265737300000000000000000000000000000000000000000000602082015250565b7f4552433732313a206f776e657220717565727920666f72206e6f6e657869737460008201527f656e7420746f6b656e0000000000000000000000000000000000000000000000602082015250565b7f4552433732313a206d696e7420746f20746865207a65726f2061646472657373600082015250565b7f4552433732313a20617070726f76656420717565727920666f72206e6f6e657860008201527f697374656e7420746f6b656e0000000000000000000000000000000000000000602082015250565b7f4f776e61626c653a2063616c6c6572206973206e6f7420746865206f776e6572600082015250565b7f4552433732313a207472616e73666572206f6620746f6b656e2074686174206960008201527f73206e6f74206f776e0000000000000000000000000000000000000000000000602082015250565b7f4552433732314d657461646174613a2055524920717565727920666f72206e6f60008201527f6e6578697374656e7420746f6b656e0000000000000000000000000000000000602082015250565b7f4552433732313a20617070726f76616c20746f2063757272656e74206f776e6560008201527f7200000000000000000000000000000000000000000000000000000000000000602082015250565b7f4552433732313a207472616e736665722063616c6c6572206973206e6f74206f60008201527f776e6572206e6f7220617070726f766564000000000000000000000000000000602082015250565b61339881612d57565b81146133a357600080fd5b50565b6133af81612d69565b81146133ba57600080fd5b50565b6133c681612d75565b81146133d157600080fd5b50565b6133dd81612dc1565b81146133e857600080fd5b5056fea264697066735822122032f40036d607ab89ded2e149ad6b6c7dfddb337472e5705de5aa51dc4db2eabe64736f6c63430008030033",
  "immutableReferences": {},
  "source": "pragma solidity ^0.8.0;\r\n\r\nimport '@openzeppelin/contracts/token/ERC721/ERC721.sol';\r\nimport \"@openzeppelin/contracts/utils/Counters.sol\";\r\nimport '@openzeppelin/contracts/access/Ownable.sol';\r\n\r\ncontract OpenNFT is ERC721, Ownable {\r\n    using Counters for Counters.Counter;\r\n    Counters.Counter public tokenId;\r\n\r\n    string private baseUri;\r\n\r\n    event NFTInitialised(uint _time, address _caller);\r\n\r\n    event NftTokenCreated(address creator, uint tokenId, string tokenUri, string caption);\r\n\r\n    mapping(string => bool) private hashExists;\r\n\r\n    mapping(uint => string) private tokensHash;\r\n\r\n    mapping(uint => address) private token_to_creator;\r\n\r\n    mapping(uint => string) private token_to_caption;\r\n\r\n    mapping(address => uint[]) private user_to_tokens;  //new\r\n\r\n    constructor (\r\n        string memory _name,\r\n        string memory _symbol\r\n    ) \r\n    public \r\n    ERC721(_name, _symbol)\r\n    {\r\n        setBaseUrl(\"ipfs.infura.io/ipfs/\");\r\n        emit NFTInitialised(block.timestamp, msg.sender);\r\n    }\r\n\r\n    modifier nftNotCreated(string memory _hash) {\r\n        require(!hashExists[_hash],\"NFT already created\");\r\n        _;\r\n    }\r\n\r\n    function createNFT(address _creator, string memory _tokenHash, string memory _tokenCaption) \r\n                                    public nftNotCreated(_tokenHash) returns(uint _reward){\r\n        tokenId.increment();\r\n\r\n        uint newTokenId = tokenId.current();\r\n\r\n        _mint(_creator, newTokenId);\r\n\r\n        tokensHash[newTokenId] = _tokenHash;\r\n        user_to_tokens[_creator].push(newTokenId);  //new\r\n        token_to_creator[newTokenId] = _creator;\r\n        token_to_caption[newTokenId] = _tokenCaption;\r\n        hashExists[_tokenHash] = true;\r\n\r\n        emit NftTokenCreated(_creator, newTokenId, tokensHash[newTokenId], _tokenCaption);\r\n\r\n        return 1;\r\n    }\r\n\r\n    function getUserNFTs(address _creator) public \r\n                                view returns(uint[] memory _tokens) {\r\n        return user_to_tokens[_creator];\r\n    }\r\n\r\n    function getTokenCreator(uint _tokenId) public view returns(address creator){\r\n        return token_to_creator[_tokenId];\r\n    }\r\n\r\n    function getTokenCaption(uint _tokenId) public view returns(string memory caption){\r\n        return token_to_caption[_tokenId];\r\n    }\r\n\r\n    function getTokenUri(uint _tokenId) public \r\n                                view returns(string memory tokenUri_){\r\n        return tokensHash[_tokenId];\r\n    }\r\n\r\n    function tokenURI(uint256 _tokenId) public view virtual override returns (string memory _uri) {\r\n        require(_exists(_tokenId), \"ERC721Metadata: URI query for nonexistent token\");\r\n\r\n        string memory baseURI = _baseURI();\r\n        return bytes(baseURI).length > 0\r\n            ? string(abi.encodePacked(baseURI, tokensHash[_tokenId]))\r\n            : '';\r\n    }\r\n\r\n    function setBaseUrl(string memory baseUri_) public onlyOwner {\r\n        baseUri = baseUri_;\r\n    }\r\n\r\n    function _baseURI() internal override view returns(string memory _base_URI){\r\n        return baseUri;\r\n    }\r\n\r\n    fallback () external {\r\n        revert();\r\n    }\r\n\r\n}",
  "sourcePath": "E:/Projects/BlockchainBootcamp/open-nft-marketplace/contracts/OpenNFT.sol",
  "compiler": {
    "name": "solc",
    "version": "0.8.3+commit.8d00100c.Emscripten.clang"
  },
  "schemaVersion": "3.3.4",
  "updatedAt": "2021-03-24T17:29:38.698Z",
  "networkType": "ethereum",
  "devdoc": {
    "kind": "dev",
    "methods": {
      "approve(address,uint256)": {
        "details": "See {IERC721-approve}."
      },
      "balanceOf(address)": {
        "details": "See {IERC721-balanceOf}."
      },
      "getApproved(uint256)": {
        "details": "See {IERC721-getApproved}."
      },
      "isApprovedForAll(address,address)": {
        "details": "See {IERC721-isApprovedForAll}."
      },
      "name()": {
        "details": "See {IERC721Metadata-name}."
      },
      "owner()": {
        "details": "Returns the address of the current owner."
      },
      "ownerOf(uint256)": {
        "details": "See {IERC721-ownerOf}."
      },
      "renounceOwnership()": {
        "details": "Leaves the contract without owner. It will not be possible to call `onlyOwner` functions anymore. Can only be called by the current owner. NOTE: Renouncing ownership will leave the contract without an owner, thereby removing any functionality that is only available to the owner."
      },
      "safeTransferFrom(address,address,uint256)": {
        "details": "See {IERC721-safeTransferFrom}."
      },
      "safeTransferFrom(address,address,uint256,bytes)": {
        "details": "See {IERC721-safeTransferFrom}."
      },
      "setApprovalForAll(address,bool)": {
        "details": "See {IERC721-setApprovalForAll}."
      },
      "supportsInterface(bytes4)": {
        "details": "See {IERC165-supportsInterface}."
      },
      "symbol()": {
        "details": "See {IERC721Metadata-symbol}."
      },
      "transferFrom(address,address,uint256)": {
        "details": "See {IERC721-transferFrom}."
      },
      "transferOwnership(address)": {
        "details": "Transfers ownership of the contract to a new account (`newOwner`). Can only be called by the current owner."
      }
    },
    "version": 1
  },
  "userdoc": {
    "kind": "user",
    "methods": {},
    "version": 1
  }
}