{
  "contractName": "OpenNFT",
  "abi": [
    {
      "inputs": [
        {
          "internalType": "string",
          "name": "_name",
          "type": "string"
        },
        {
          "internalType": "string",
          "name": "_symbol",
          "type": "string"
        }
      ],
      "stateMutability": "nonpayable",
      "type": "constructor"
    },
    {
      "anonymous": false,
      "inputs": [
        {
          "indexed": true,
          "internalType": "address",
          "name": "owner",
          "type": "address"
        },
        {
          "indexed": true,
          "internalType": "address",
          "name": "approved",
          "type": "address"
        },
        {
          "indexed": true,
          "internalType": "uint256",
          "name": "tokenId",
          "type": "uint256"
        }
      ],
      "name": "Approval",
      "type": "event"
    },
    {
      "anonymous": false,
      "inputs": [
        {
          "indexed": true,
          "internalType": "address",
          "name": "owner",
          "type": "address"
        },
        {
          "indexed": true,
          "internalType": "address",
          "name": "operator",
          "type": "address"
        },
        {
          "indexed": false,
          "internalType": "bool",
          "name": "approved",
          "type": "bool"
        }
      ],
      "name": "ApprovalForAll",
      "type": "event"
    },
    {
      "anonymous": false,
      "inputs": [
        {
          "indexed": false,
          "internalType": "uint256",
          "name": "_time",
          "type": "uint256"
        },
        {
          "indexed": false,
          "internalType": "address",
          "name": "_caller",
          "type": "address"
        }
      ],
      "name": "NFTInitialised",
      "type": "event"
    },
    {
      "anonymous": false,
      "inputs": [
        {
          "indexed": false,
          "internalType": "address",
          "name": "creator",
          "type": "address"
        },
        {
          "indexed": false,
          "internalType": "uint256",
          "name": "tokenId",
          "type": "uint256"
        },
        {
          "indexed": false,
          "internalType": "string",
          "name": "tokenUri",
          "type": "string"
        }
      ],
      "name": "NftTokenCreated",
      "type": "event"
    },
    {
      "anonymous": false,
      "inputs": [
        {
          "indexed": true,
          "internalType": "address",
          "name": "previousOwner",
          "type": "address"
        },
        {
          "indexed": true,
          "internalType": "address",
          "name": "newOwner",
          "type": "address"
        }
      ],
      "name": "OwnershipTransferred",
      "type": "event"
    },
    {
      "anonymous": false,
      "inputs": [
        {
          "indexed": true,
          "internalType": "address",
          "name": "from",
          "type": "address"
        },
        {
          "indexed": true,
          "internalType": "address",
          "name": "to",
          "type": "address"
        },
        {
          "indexed": true,
          "internalType": "uint256",
          "name": "tokenId",
          "type": "uint256"
        }
      ],
      "name": "Transfer",
      "type": "event"
    },
    {
      "stateMutability": "nonpayable",
      "type": "fallback"
    },
    {
      "inputs": [
        {
          "internalType": "address",
          "name": "to",
          "type": "address"
        },
        {
          "internalType": "uint256",
          "name": "tokenId",
          "type": "uint256"
        }
      ],
      "name": "approve",
      "outputs": [],
      "stateMutability": "nonpayable",
      "type": "function"
    },
    {
      "inputs": [
        {
          "internalType": "address",
          "name": "owner",
          "type": "address"
        }
      ],
      "name": "balanceOf",
      "outputs": [
        {
          "internalType": "uint256",
          "name": "",
          "type": "uint256"
        }
      ],
      "stateMutability": "view",
      "type": "function"
    },
    {
      "inputs": [
        {
          "internalType": "uint256",
          "name": "tokenId",
          "type": "uint256"
        }
      ],
      "name": "getApproved",
      "outputs": [
        {
          "internalType": "address",
          "name": "",
          "type": "address"
        }
      ],
      "stateMutability": "view",
      "type": "function"
    },
    {
      "inputs": [
        {
          "internalType": "address",
          "name": "owner",
          "type": "address"
        },
        {
          "internalType": "address",
          "name": "operator",
          "type": "address"
        }
      ],
      "name": "isApprovedForAll",
      "outputs": [
        {
          "internalType": "bool",
          "name": "",
          "type": "bool"
        }
      ],
      "stateMutability": "view",
      "type": "function"
    },
    {
      "inputs": [],
      "name": "name",
      "outputs": [
        {
          "internalType": "string",
          "name": "",
          "type": "string"
        }
      ],
      "stateMutability": "view",
      "type": "function"
    },
    {
      "inputs": [],
      "name": "owner",
      "outputs": [
        {
          "internalType": "address",
          "name": "",
          "type": "address"
        }
      ],
      "stateMutability": "view",
      "type": "function"
    },
    {
      "inputs": [
        {
          "internalType": "uint256",
          "name": "tokenId",
          "type": "uint256"
        }
      ],
      "name": "ownerOf",
      "outputs": [
        {
          "internalType": "address",
          "name": "",
          "type": "address"
        }
      ],
      "stateMutability": "view",
      "type": "function"
    },
    {
      "inputs": [],
      "name": "renounceOwnership",
      "outputs": [],
      "stateMutability": "nonpayable",
      "type": "function"
    },
    {
      "inputs": [
        {
          "internalType": "address",
          "name": "from",
          "type": "address"
        },
        {
          "internalType": "address",
          "name": "to",
          "type": "address"
        },
        {
          "internalType": "uint256",
          "name": "tokenId",
          "type": "uint256"
        }
      ],
      "name": "safeTransferFrom",
      "outputs": [],
      "stateMutability": "nonpayable",
      "type": "function"
    },
    {
      "inputs": [
        {
          "internalType": "address",
          "name": "from",
          "type": "address"
        },
        {
          "internalType": "address",
          "name": "to",
          "type": "address"
        },
        {
          "internalType": "uint256",
          "name": "tokenId",
          "type": "uint256"
        },
        {
          "internalType": "bytes",
          "name": "_data",
          "type": "bytes"
        }
      ],
      "name": "safeTransferFrom",
      "outputs": [],
      "stateMutability": "nonpayable",
      "type": "function"
    },
    {
      "inputs": [
        {
          "internalType": "address",
          "name": "operator",
          "type": "address"
        },
        {
          "internalType": "bool",
          "name": "approved",
          "type": "bool"
        }
      ],
      "name": "setApprovalForAll",
      "outputs": [],
      "stateMutability": "nonpayable",
      "type": "function"
    },
    {
      "inputs": [
        {
          "internalType": "bytes4",
          "name": "interfaceId",
          "type": "bytes4"
        }
      ],
      "name": "supportsInterface",
      "outputs": [
        {
          "internalType": "bool",
          "name": "",
          "type": "bool"
        }
      ],
      "stateMutability": "view",
      "type": "function"
    },
    {
      "inputs": [],
      "name": "symbol",
      "outputs": [
        {
          "internalType": "string",
          "name": "",
          "type": "string"
        }
      ],
      "stateMutability": "view",
      "type": "function"
    },
    {
      "inputs": [],
      "name": "tokenId",
      "outputs": [
        {
          "internalType": "uint256",
          "name": "_value",
          "type": "uint256"
        }
      ],
      "stateMutability": "view",
      "type": "function"
    },
    {
      "inputs": [
        {
          "internalType": "address",
          "name": "from",
          "type": "address"
        },
        {
          "internalType": "address",
          "name": "to",
          "type": "address"
        },
        {
          "internalType": "uint256",
          "name": "tokenId",
          "type": "uint256"
        }
      ],
      "name": "transferFrom",
      "outputs": [],
      "stateMutability": "nonpayable",
      "type": "function"
    },
    {
      "inputs": [
        {
          "internalType": "address",
          "name": "newOwner",
          "type": "address"
        }
      ],
      "name": "transferOwnership",
      "outputs": [],
      "stateMutability": "nonpayable",
      "type": "function"
    },
    {
      "inputs": [
        {
          "internalType": "address",
          "name": "_creator",
          "type": "address"
        },
        {
          "internalType": "string",
          "name": "_tokenURI",
          "type": "string"
        },
        {
          "internalType": "string",
          "name": "_caption",
          "type": "string"
        }
      ],
      "name": "createNFT",
      "outputs": [
        {
          "internalType": "uint256",
          "name": "_reward",
          "type": "uint256"
        }
      ],
      "stateMutability": "nonpayable",
      "type": "function"
    },
    {
      "inputs": [
        {
          "internalType": "address",
          "name": "_creator",
          "type": "address"
        }
      ],
      "name": "getUserNFTs",
      "outputs": [
        {
          "internalType": "uint256[]",
          "name": "_tokens",
          "type": "uint256[]"
        }
      ],
      "stateMutability": "view",
      "type": "function"
    },
    {
      "inputs": [
        {
          "internalType": "uint256",
          "name": "_tokenId",
          "type": "uint256"
        }
      ],
      "name": "getTokenUri",
      "outputs": [
        {
          "internalType": "string",
          "name": "tokenUri_",
          "type": "string"
        }
      ],
      "stateMutability": "view",
      "type": "function"
    },
    {
      "inputs": [
        {
          "internalType": "uint256",
          "name": "_tokenId",
          "type": "uint256"
        }
      ],
      "name": "getCreator",
      "outputs": [
        {
          "internalType": "address",
          "name": "creator",
          "type": "address"
        }
      ],
      "stateMutability": "view",
      "type": "function"
    },
    {
      "inputs": [
        {
          "internalType": "uint256",
          "name": "_tokenId",
          "type": "uint256"
        }
      ],
      "name": "getCaption",
      "outputs": [
        {
          "internalType": "string",
          "name": "caption",
          "type": "string"
        }
      ],
      "stateMutability": "view",
      "type": "function"
    },
    {
      "inputs": [
        {
          "internalType": "uint256",
          "name": "_tokenId",
          "type": "uint256"
        }
      ],
      "name": "tokenURI",
      "outputs": [
        {
          "internalType": "string",
          "name": "_uri",
          "type": "string"
        }
      ],
      "stateMutability": "view",
      "type": "function"
    },
    {
      "inputs": [
        {
          "internalType": "string",
          "name": "baseUri_",
          "type": "string"
        }
      ],
      "name": "setBaseUrl",
      "outputs": [],
      "stateMutability": "nonpayable",
      "type": "function"
    }
  ],
  "bytecode": "0x60806040523480156200001157600080fd5b5060405162003ab838038062003ab88339818101604052810190620000379190620003a6565b818181600090805190602001906200005192919062000284565b5080600190805190602001906200006a92919062000284565b50505060006200007f620001a760201b60201c565b905080600660006101000a81548173ffffffffffffffffffffffffffffffffffffffff021916908373ffffffffffffffffffffffffffffffffffffffff1602179055508073ffffffffffffffffffffffffffffffffffffffff16600073ffffffffffffffffffffffffffffffffffffffff167f8be0079c531659141344cd1fd0a4f28419497f9722a3daafe3b4186f6b6457e060405160405180910390a350620001646040518060400160405280601c81526020017f68747470733a2f2f697066732e696e667572612e696f2f697066732f00000000815250620001af60201b60201c565b7f451a95fdf4424d3f1fc736b5787f5b9186e21c8af9c4cef020067be638e1ad0e42336040516200019792919062000484565b60405180910390a1505062000699565b600033905090565b620001bf620001a760201b60201c565b73ffffffffffffffffffffffffffffffffffffffff16620001e56200025a60201b60201c565b73ffffffffffffffffffffffffffffffffffffffff16146200023e576040517f08c379a0000000000000000000000000000000000000000000000000000000008152600401620002359062000462565b60405180910390fd5b80600890805190602001906200025692919062000284565b5050565b6000600660009054906101000a900473ffffffffffffffffffffffffffffffffffffffff16905090565b828054620002929062000595565b90600052602060002090601f016020900481019282620002b6576000855562000302565b82601f10620002d157805160ff191683800117855562000302565b8280016001018555821562000302579182015b8281111562000301578251825591602001919060010190620002e4565b5b50905062000311919062000315565b5090565b5b808211156200033057600081600090555060010162000316565b5090565b60006200034b6200034584620004da565b620004b1565b9050828152602081018484840111156200036457600080fd5b620003718482856200055f565b509392505050565b600082601f8301126200038b57600080fd5b81516200039d84826020860162000334565b91505092915050565b60008060408385031215620003ba57600080fd5b600083015167ffffffffffffffff811115620003d557600080fd5b620003e38582860162000379565b925050602083015167ffffffffffffffff8111156200040157600080fd5b6200040f8582860162000379565b9150509250929050565b620004248162000521565b82525050565b60006200043960208362000510565b9150620004468262000670565b602082019050919050565b6200045c8162000555565b82525050565b600060208201905081810360008301526200047d816200042a565b9050919050565b60006040820190506200049b600083018562000451565b620004aa602083018462000419565b9392505050565b6000620004bd620004d0565b9050620004cb8282620005cb565b919050565b6000604051905090565b600067ffffffffffffffff821115620004f857620004f762000630565b5b62000503826200065f565b9050602081019050919050565b600082825260208201905092915050565b60006200052e8262000535565b9050919050565b600073ffffffffffffffffffffffffffffffffffffffff82169050919050565b6000819050919050565b60005b838110156200057f57808201518184015260208101905062000562565b838111156200058f576000848401525b50505050565b60006002820490506001821680620005ae57607f821691505b60208210811415620005c557620005c462000601565b5b50919050565b620005d6826200065f565b810181811067ffffffffffffffff82111715620005f857620005f762000630565b5b80604052505050565b7f4e487b7100000000000000000000000000000000000000000000000000000000600052602260045260246000fd5b7f4e487b7100000000000000000000000000000000000000000000000000000000600052604160045260246000fd5b6000601f19601f8301169050919050565b7f4f776e61626c653a2063616c6c6572206973206e6f7420746865206f776e6572600082015250565b61340f80620006a96000396000f3fe608060405234801561001057600080fd5b50600436106101515760003560e01c806370a08231116100c3578063b88d4fde1161007c578063b88d4fde146103c9578063c7c3268b146103e5578063c87b56dd14610401578063d48e638a14610431578063e985e9c514610461578063f2fde38b1461049157610152565b806370a0823114610307578063715018a6146103375780638ad91345146103415780638da5cb5b1461037157806395d89b411461038f578063a22cb465146103ad57610152565b80630b564a7c116101155780630b564a7c1461022157806317d70f7c1461025157806323b872dd1461026f57806342842e0e1461028b57806352de4ee5146102a75780636352211e146102d757610152565b806301ffc9a7146101575780630257e2491461018757806306fdde03146101b7578063081812fc146101d5578063095ea7b31461020557610152565b5b600080fd5b610171600480360381019061016c91906122c6565b6104ad565b60405161017e919061292b565b60405180910390f35b6101a1600480360381019061019c9190612359565b61058f565b6040516101ae9190612946565b60405180910390f35b6101bf610634565b6040516101cc9190612946565b60405180910390f35b6101ef60048036038101906101ea9190612359565b6106c6565b6040516101fc9190612864565b60405180910390f35b61021f600480360381019061021a919061228a565b61074b565b005b61023b6004803603810190610236919061220b565b610863565b6040516102489190612b88565b60405180910390f35b610259610a92565b6040516102669190612b88565b60405180910390f35b61028960048036038101906102849190612105565b610a9e565b005b6102a560048036038101906102a09190612105565b610afe565b005b6102c160048036038101906102bc91906120a0565b610b1e565b6040516102ce9190612909565b60405180910390f35b6102f160048036038101906102ec9190612359565b610bb5565b6040516102fe9190612864565b60405180910390f35b610321600480360381019061031c91906120a0565b610c67565b60405161032e9190612b88565b60405180910390f35b61033f610d1f565b005b61035b60048036038101906103569190612359565b610e5c565b6040516103689190612946565b60405180910390f35b610379610f01565b6040516103869190612864565b60405180910390f35b610397610f2b565b6040516103a49190612946565b60405180910390f35b6103c760048036038101906103c291906121cf565b610fbd565b005b6103e360048036038101906103de9190612154565b61113e565b005b6103ff60048036038101906103fa9190612318565b6111a0565b005b61041b60048036038101906104169190612359565b611236565b6040516104289190612946565b60405180910390f35b61044b60048036038101906104469190612359565b6112e7565b6040516104589190612864565b60405180910390f35b61047b600480360381019061047691906120c9565b611324565b604051610488919061292b565b60405180910390f35b6104ab60048036038101906104a691906120a0565b6113b8565b005b60007f80ac58cd000000000000000000000000000000000000000000000000000000007bffffffffffffffffffffffffffffffffffffffffffffffffffffffff1916827bffffffffffffffffffffffffffffffffffffffffffffffffffffffff1916148061057857507f5b5e139f000000000000000000000000000000000000000000000000000000007bffffffffffffffffffffffffffffffffffffffffffffffffffffffff1916827bffffffffffffffffffffffffffffffffffffffffffffffffffffffff1916145b80610588575061058782611564565b5b9050919050565b6060600d600083815260200190815260200160002080546105af90612dfb565b80601f01602080910402602001604051908101604052809291908181526020018280546105db90612dfb565b80156106285780601f106105fd57610100808354040283529160200191610628565b820191906000526020600020905b81548152906001019060200180831161060b57829003601f168201915b50505050509050919050565b60606000805461064390612dfb565b80601f016020809104026020016040519081016040528092919081815260200182805461066f90612dfb565b80156106bc5780601f10610691576101008083540402835291602001916106bc565b820191906000526020600020905b81548152906001019060200180831161069f57829003601f168201915b5050505050905090565b60006106d1826115ce565b610710576040517f08c379a000000000000000000000000000000000000000000000000000000000815260040161070790612ac8565b60405180910390fd5b6004600083815260200190815260200160002060009054906101000a900473ffffffffffffffffffffffffffffffffffffffff169050919050565b600061075682610bb5565b90508073ffffffffffffffffffffffffffffffffffffffff168373ffffffffffffffffffffffffffffffffffffffff1614156107c7576040517f08c379a00000000000000000000000000000000000000000000000000000000081526004016107be90612b48565b60405180910390fd5b8073ffffffffffffffffffffffffffffffffffffffff166107e661163a565b73ffffffffffffffffffffffffffffffffffffffff16148061081557506108148161080f61163a565b611324565b5b610854576040517f08c379a000000000000000000000000000000000000000000000000000000000815260040161084b90612a48565b60405180910390fd5b61085e8383611642565b505050565b60006001600b846040516108779190612829565b908152602001604051809103902060009054906101000a900460ff1660ff1614156108d7576040517f08c379a00000000000000000000000000000000000000000000000000000000081526004016108ce90612a28565b60405180910390fd5b6108e160076116fb565b60006108ed6007611711565b905083600960008381526020019081526020016000209080519060200190610916929190611ec4565b50600a60008673ffffffffffffffffffffffffffffffffffffffff1673ffffffffffffffffffffffffffffffffffffffff1681526020019081526020016000208190806001815401808255809150506001900390600052602060002001600090919091909150556001600b8560405161098f9190612829565b908152602001604051809103902060006101000a81548160ff021916908360ff16021790555084600c600083815260200190815260200160002060006101000a81548173ffffffffffffffffffffffffffffffffffffffff021916908373ffffffffffffffffffffffffffffffffffffffff16021790555082600d60008381526020019081526020016000209080519060200190610a2e929190611ec4565b50610a39858261171f565b7f1f2ff6bb7abce32a04a91be56d627d310137b1ada9d4dced966d5422903fbece858260096000858152602001908152602001600020604051610a7e939291906128cb565b60405180910390a160019150509392505050565b60078060000154905081565b610aaf610aa961163a565b826118ed565b610aee576040517f08c379a0000000000000000000000000000000000000000000000000000000008152600401610ae590612b68565b60405180910390fd5b610af98383836119cb565b505050565b610b198383836040518060200160405280600081525061113e565b505050565b6060600a60008373ffffffffffffffffffffffffffffffffffffffff1673ffffffffffffffffffffffffffffffffffffffff168152602001908152602001600020805480602002602001604051908101604052809291908181526020018280548015610ba957602002820191906000526020600020905b815481526020019060010190808311610b95575b50505050509050919050565b6000806002600084815260200190815260200160002060009054906101000a900473ffffffffffffffffffffffffffffffffffffffff169050600073ffffffffffffffffffffffffffffffffffffffff168173ffffffffffffffffffffffffffffffffffffffff161415610c5e576040517f08c379a0000000000000000000000000000000000000000000000000000000008152600401610c5590612a88565b60405180910390fd5b80915050919050565b60008073ffffffffffffffffffffffffffffffffffffffff168273ffffffffffffffffffffffffffffffffffffffff161415610cd8576040517f08c379a0000000000000000000000000000000000000000000000000000000008152600401610ccf90612a68565b60405180910390fd5b600360008373ffffffffffffffffffffffffffffffffffffffff1673ffffffffffffffffffffffffffffffffffffffff168152602001908152602001600020549050919050565b610d2761163a565b73ffffffffffffffffffffffffffffffffffffffff16610d45610f01565b73ffffffffffffffffffffffffffffffffffffffff1614610d9b576040517f08c379a0000000000000000000000000000000000000000000000000000000008152600401610d9290612ae8565b60405180910390fd5b600073ffffffffffffffffffffffffffffffffffffffff16600660009054906101000a900473ffffffffffffffffffffffffffffffffffffffff1673ffffffffffffffffffffffffffffffffffffffff167f8be0079c531659141344cd1fd0a4f28419497f9722a3daafe3b4186f6b6457e060405160405180910390a36000600660006101000a81548173ffffffffffffffffffffffffffffffffffffffff021916908373ffffffffffffffffffffffffffffffffffffffff160217905550565b6060600960008381526020019081526020016000208054610e7c90612dfb565b80601f0160208091040260200160405190810160405280929190818152602001828054610ea890612dfb565b8015610ef55780601f10610eca57610100808354040283529160200191610ef5565b820191906000526020600020905b815481529060010190602001808311610ed857829003601f168201915b50505050509050919050565b6000600660009054906101000a900473ffffffffffffffffffffffffffffffffffffffff16905090565b606060018054610f3a90612dfb565b80601f0160208091040260200160405190810160405280929190818152602001828054610f6690612dfb565b8015610fb35780601f10610f8857610100808354040283529160200191610fb3565b820191906000526020600020905b815481529060010190602001808311610f9657829003601f168201915b5050505050905090565b610fc561163a565b73ffffffffffffffffffffffffffffffffffffffff168273ffffffffffffffffffffffffffffffffffffffff161415611033576040517f08c379a000000000000000000000000000000000000000000000000000000000815260040161102a906129e8565b60405180910390fd5b806005600061104061163a565b73ffffffffffffffffffffffffffffffffffffffff1673ffffffffffffffffffffffffffffffffffffffff16815260200190815260200160002060008473ffffffffffffffffffffffffffffffffffffffff1673ffffffffffffffffffffffffffffffffffffffff16815260200190815260200160002060006101000a81548160ff0219169083151502179055508173ffffffffffffffffffffffffffffffffffffffff166110ed61163a565b73ffffffffffffffffffffffffffffffffffffffff167f17307eab39ab6107e8899845ad3d59bd9653f200f220920489ca2b5937696c3183604051611132919061292b565b60405180910390a35050565b61114f61114961163a565b836118ed565b61118e576040517f08c379a000000000000000000000000000000000000000000000000000000000815260040161118590612b68565b60405180910390fd5b61119a84848484611c27565b50505050565b6111a861163a565b73ffffffffffffffffffffffffffffffffffffffff166111c6610f01565b73ffffffffffffffffffffffffffffffffffffffff161461121c576040517f08c379a000000000000000000000000000000000000000000000000000000000815260040161121390612ae8565b60405180910390fd5b8060089080519060200190611232929190611ec4565b5050565b6060611241826115ce565b611280576040517f08c379a000000000000000000000000000000000000000000000000000000000815260040161127790612b28565b60405180910390fd5b600061128a611c83565b905060008151116112aa57604051806020016040528060008152506112df565b80600960008581526020019081526020016000206040516020016112cf929190612840565b6040516020818303038152906040525b915050919050565b6000600c600083815260200190815260200160002060009054906101000a900473ffffffffffffffffffffffffffffffffffffffff169050919050565b6000600560008473ffffffffffffffffffffffffffffffffffffffff1673ffffffffffffffffffffffffffffffffffffffff16815260200190815260200160002060008373ffffffffffffffffffffffffffffffffffffffff1673ffffffffffffffffffffffffffffffffffffffff16815260200190815260200160002060009054906101000a900460ff16905092915050565b6113c061163a565b73ffffffffffffffffffffffffffffffffffffffff166113de610f01565b73ffffffffffffffffffffffffffffffffffffffff1614611434576040517f08c379a000000000000000000000000000000000000000000000000000000000815260040161142b90612ae8565b60405180910390fd5b600073ffffffffffffffffffffffffffffffffffffffff168173ffffffffffffffffffffffffffffffffffffffff1614156114a4576040517f08c379a000000000000000000000000000000000000000000000000000000000815260040161149b90612988565b60405180910390fd5b8073ffffffffffffffffffffffffffffffffffffffff16600660009054906101000a900473ffffffffffffffffffffffffffffffffffffffff1673ffffffffffffffffffffffffffffffffffffffff167f8be0079c531659141344cd1fd0a4f28419497f9722a3daafe3b4186f6b6457e060405160405180910390a380600660006101000a81548173ffffffffffffffffffffffffffffffffffffffff021916908373ffffffffffffffffffffffffffffffffffffffff16021790555050565b60007f01ffc9a7000000000000000000000000000000000000000000000000000000007bffffffffffffffffffffffffffffffffffffffffffffffffffffffff1916827bffffffffffffffffffffffffffffffffffffffffffffffffffffffff1916149050919050565b60008073ffffffffffffffffffffffffffffffffffffffff166002600084815260200190815260200160002060009054906101000a900473ffffffffffffffffffffffffffffffffffffffff1673ffffffffffffffffffffffffffffffffffffffff1614159050919050565b600033905090565b816004600083815260200190815260200160002060006101000a81548173ffffffffffffffffffffffffffffffffffffffff021916908373ffffffffffffffffffffffffffffffffffffffff160217905550808273ffffffffffffffffffffffffffffffffffffffff166116b583610bb5565b73ffffffffffffffffffffffffffffffffffffffff167f8c5be1e5ebec7d5bd14f71427d1e84f3dd0314c0f7b2291e5b200ac8c7c3b92560405160405180910390a45050565b6001816000016000828254019250508190555050565b600081600001549050919050565b600073ffffffffffffffffffffffffffffffffffffffff168273ffffffffffffffffffffffffffffffffffffffff16141561178f576040517f08c379a000000000000000000000000000000000000000000000000000000000815260040161178690612aa8565b60405180910390fd5b611798816115ce565b156117d8576040517f08c379a00000000000000000000000000000000000000000000000000000000081526004016117cf906129a8565b60405180910390fd5b6117e460008383611d15565b6001600360008473ffffffffffffffffffffffffffffffffffffffff1673ffffffffffffffffffffffffffffffffffffffff16815260200190815260200160002060008282546118349190612cbb565b92505081905550816002600083815260200190815260200160002060006101000a81548173ffffffffffffffffffffffffffffffffffffffff021916908373ffffffffffffffffffffffffffffffffffffffff160217905550808273ffffffffffffffffffffffffffffffffffffffff16600073ffffffffffffffffffffffffffffffffffffffff167fddf252ad1be2c89b69c2b068fc378daa952ba7f163c4a11628f55a4df523b3ef60405160405180910390a45050565b60006118f8826115ce565b611937576040517f08c379a000000000000000000000000000000000000000000000000000000000815260040161192e90612a08565b60405180910390fd5b600061194283610bb5565b90508073ffffffffffffffffffffffffffffffffffffffff168473ffffffffffffffffffffffffffffffffffffffff1614806119b157508373ffffffffffffffffffffffffffffffffffffffff16611999846106c6565b73ffffffffffffffffffffffffffffffffffffffff16145b806119c257506119c18185611324565b5b91505092915050565b8273ffffffffffffffffffffffffffffffffffffffff166119eb82610bb5565b73ffffffffffffffffffffffffffffffffffffffff1614611a41576040517f08c379a0000000000000000000000000000000000000000000000000000000008152600401611a3890612b08565b60405180910390fd5b600073ffffffffffffffffffffffffffffffffffffffff168273ffffffffffffffffffffffffffffffffffffffff161415611ab1576040517f08c379a0000000000000000000000000000000000000000000000000000000008152600401611aa8906129c8565b60405180910390fd5b611abc838383611d15565b611ac7600082611642565b6001600360008573ffffffffffffffffffffffffffffffffffffffff1673ffffffffffffffffffffffffffffffffffffffff1681526020019081526020016000206000828254611b179190612d11565b925050819055506001600360008473ffffffffffffffffffffffffffffffffffffffff1673ffffffffffffffffffffffffffffffffffffffff1681526020019081526020016000206000828254611b6e9190612cbb565b92505081905550816002600083815260200190815260200160002060006101000a81548173ffffffffffffffffffffffffffffffffffffffff021916908373ffffffffffffffffffffffffffffffffffffffff160217905550808273ffffffffffffffffffffffffffffffffffffffff168473ffffffffffffffffffffffffffffffffffffffff167fddf252ad1be2c89b69c2b068fc378daa952ba7f163c4a11628f55a4df523b3ef60405160405180910390a4505050565b611c328484846119cb565b611c3e84848484611d1a565b611c7d576040517f08c379a0000000000000000000000000000000000000000000000000000000008152600401611c7490612968565b60405180910390fd5b50505050565b606060088054611c9290612dfb565b80601f0160208091040260200160405190810160405280929190818152602001828054611cbe90612dfb565b8015611d0b5780601f10611ce057610100808354040283529160200191611d0b565b820191906000526020600020905b815481529060010190602001808311611cee57829003601f168201915b5050505050905090565b505050565b6000611d3b8473ffffffffffffffffffffffffffffffffffffffff16611eb1565b15611ea4578373ffffffffffffffffffffffffffffffffffffffff1663150b7a02611d6461163a565b8786866040518563ffffffff1660e01b8152600401611d86949392919061287f565b602060405180830381600087803b158015611da057600080fd5b505af1925050508015611dd157506040513d601f19601f82011682018060405250810190611dce91906122ef565b60015b611e54573d8060008114611e01576040519150601f19603f3d011682016040523d82523d6000602084013e611e06565b606091505b50600081511415611e4c576040517f08c379a0000000000000000000000000000000000000000000000000000000008152600401611e4390612968565b60405180910390fd5b805181602001fd5b63150b7a0260e01b7bffffffffffffffffffffffffffffffffffffffffffffffffffffffff1916817bffffffffffffffffffffffffffffffffffffffffffffffffffffffff191614915050611ea9565b600190505b949350505050565b600080823b905060008111915050919050565b828054611ed090612dfb565b90600052602060002090601f016020900481019282611ef25760008555611f39565b82601f10611f0b57805160ff1916838001178555611f39565b82800160010185558215611f39579182015b82811115611f38578251825591602001919060010190611f1d565b5b509050611f469190611f4a565b5090565b5b80821115611f63576000816000905550600101611f4b565b5090565b6000611f7a611f7584612bc8565b612ba3565b905082815260208101848484011115611f9257600080fd5b611f9d848285612db9565b509392505050565b6000611fb8611fb384612bf9565b612ba3565b905082815260208101848484011115611fd057600080fd5b611fdb848285612db9565b509392505050565b600081359050611ff28161337d565b92915050565b60008135905061200781613394565b92915050565b60008135905061201c816133ab565b92915050565b600081519050612031816133ab565b92915050565b600082601f83011261204857600080fd5b8135612058848260208601611f67565b91505092915050565b600082601f83011261207257600080fd5b8135612082848260208601611fa5565b91505092915050565b60008135905061209a816133c2565b92915050565b6000602082840312156120b257600080fd5b60006120c084828501611fe3565b91505092915050565b600080604083850312156120dc57600080fd5b60006120ea85828601611fe3565b92505060206120fb85828601611fe3565b9150509250929050565b60008060006060848603121561211a57600080fd5b600061212886828701611fe3565b935050602061213986828701611fe3565b925050604061214a8682870161208b565b9150509250925092565b6000806000806080858703121561216a57600080fd5b600061217887828801611fe3565b945050602061218987828801611fe3565b935050604061219a8782880161208b565b925050606085013567ffffffffffffffff8111156121b757600080fd5b6121c387828801612037565b91505092959194509250565b600080604083850312156121e257600080fd5b60006121f085828601611fe3565b925050602061220185828601611ff8565b9150509250929050565b60008060006060848603121561222057600080fd5b600061222e86828701611fe3565b935050602084013567ffffffffffffffff81111561224b57600080fd5b61225786828701612061565b925050604084013567ffffffffffffffff81111561227457600080fd5b61228086828701612061565b9150509250925092565b6000806040838503121561229d57600080fd5b60006122ab85828601611fe3565b92505060206122bc8582860161208b565b9150509250929050565b6000602082840312156122d857600080fd5b60006122e68482850161200d565b91505092915050565b60006020828403121561230157600080fd5b600061230f84828501612022565b91505092915050565b60006020828403121561232a57600080fd5b600082013567ffffffffffffffff81111561234457600080fd5b61235084828501612061565b91505092915050565b60006020828403121561236b57600080fd5b60006123798482850161208b565b91505092915050565b600061238e838361280b565b60208301905092915050565b6123a381612d45565b82525050565b60006123b482612c4f565b6123be8185612c7d565b93506123c983612c2a565b8060005b838110156123fa5781516123e18882612382565b97506123ec83612c70565b9250506001810190506123cd565b5085935050505092915050565b61241081612d57565b82525050565b600061242182612c5a565b61242b8185612c8e565b935061243b818560208601612dc8565b61244481612eeb565b840191505092915050565b600061245a82612c65565b6124648185612c9f565b9350612474818560208601612dc8565b61247d81612eeb565b840191505092915050565b600061249382612c65565b61249d8185612cb0565b93506124ad818560208601612dc8565b80840191505092915050565b600081546124c681612dfb565b6124d08186612c9f565b945060018216600081146124eb57600181146124fd57612530565b60ff1983168652602086019350612530565b61250685612c3a565b60005b8381101561252857815481890152600182019150602081019050612509565b808801955050505b50505092915050565b6000815461254681612dfb565b6125508186612cb0565b9450600182166000811461256b576001811461257c576125af565b60ff198316865281860193506125af565b61258585612c3a565b60005b838110156125a757815481890152600182019150602081019050612588565b838801955050505b50505092915050565b60006125c5603283612c9f565b91506125d082612efc565b604082019050919050565b60006125e8602683612c9f565b91506125f382612f4b565b604082019050919050565b600061260b601c83612c9f565b915061261682612f9a565b602082019050919050565b600061262e602483612c9f565b915061263982612fc3565b604082019050919050565b6000612651601983612c9f565b915061265c82613012565b602082019050919050565b6000612674602c83612c9f565b915061267f8261303b565b604082019050919050565b6000612697601383612c9f565b91506126a28261308a565b602082019050919050565b60006126ba603883612c9f565b91506126c5826130b3565b604082019050919050565b60006126dd602a83612c9f565b91506126e882613102565b604082019050919050565b6000612700602983612c9f565b915061270b82613151565b604082019050919050565b6000612723602083612c9f565b915061272e826131a0565b602082019050919050565b6000612746602c83612c9f565b9150612751826131c9565b604082019050919050565b6000612769602083612c9f565b915061277482613218565b602082019050919050565b600061278c602983612c9f565b915061279782613241565b604082019050919050565b60006127af602f83612c9f565b91506127ba82613290565b604082019050919050565b60006127d2602183612c9f565b91506127dd826132df565b604082019050919050565b60006127f5603183612c9f565b91506128008261332e565b604082019050919050565b61281481612daf565b82525050565b61282381612daf565b82525050565b60006128358284612488565b915081905092915050565b600061284c8285612488565b91506128588284612539565b91508190509392505050565b6000602082019050612879600083018461239a565b92915050565b6000608082019050612894600083018761239a565b6128a1602083018661239a565b6128ae604083018561281a565b81810360608301526128c08184612416565b905095945050505050565b60006060820190506128e0600083018661239a565b6128ed602083018561281a565b81810360408301526128ff81846124b9565b9050949350505050565b6000602082019050818103600083015261292381846123a9565b905092915050565b60006020820190506129406000830184612407565b92915050565b60006020820190508181036000830152612960818461244f565b905092915050565b60006020820190508181036000830152612981816125b8565b9050919050565b600060208201905081810360008301526129a1816125db565b9050919050565b600060208201905081810360008301526129c1816125fe565b9050919050565b600060208201905081810360008301526129e181612621565b9050919050565b60006020820190508181036000830152612a0181612644565b9050919050565b60006020820190508181036000830152612a2181612667565b9050919050565b60006020820190508181036000830152612a418161268a565b9050919050565b60006020820190508181036000830152612a61816126ad565b9050919050565b60006020820190508181036000830152612a81816126d0565b9050919050565b60006020820190508181036000830152612aa1816126f3565b9050919050565b60006020820190508181036000830152612ac181612716565b9050919050565b60006020820190508181036000830152612ae181612739565b9050919050565b60006020820190508181036000830152612b018161275c565b9050919050565b60006020820190508181036000830152612b218161277f565b9050919050565b60006020820190508181036000830152612b41816127a2565b9050919050565b60006020820190508181036000830152612b61816127c5565b9050919050565b60006020820190508181036000830152612b81816127e8565b9050919050565b6000602082019050612b9d600083018461281a565b92915050565b6000612bad612bbe565b9050612bb98282612e2d565b919050565b6000604051905090565b600067ffffffffffffffff821115612be357612be2612ebc565b5b612bec82612eeb565b9050602081019050919050565b600067ffffffffffffffff821115612c1457612c13612ebc565b5b612c1d82612eeb565b9050602081019050919050565b6000819050602082019050919050565b60008190508160005260206000209050919050565b600081519050919050565b600081519050919050565b600081519050919050565b6000602082019050919050565b600082825260208201905092915050565b600082825260208201905092915050565b600082825260208201905092915050565b600081905092915050565b6000612cc682612daf565b9150612cd183612daf565b9250827fffffffffffffffffffffffffffffffffffffffffffffffffffffffffffffffff03821115612d0657612d05612e5e565b5b828201905092915050565b6000612d1c82612daf565b9150612d2783612daf565b925082821015612d3a57612d39612e5e565b5b828203905092915050565b6000612d5082612d8f565b9050919050565b60008115159050919050565b60007fffffffff0000000000000000000000000000000000000000000000000000000082169050919050565b600073ffffffffffffffffffffffffffffffffffffffff82169050919050565b6000819050919050565b82818337600083830152505050565b60005b83811015612de6578082015181840152602081019050612dcb565b83811115612df5576000848401525b50505050565b60006002820490506001821680612e1357607f821691505b60208210811415612e2757612e26612e8d565b5b50919050565b612e3682612eeb565b810181811067ffffffffffffffff82111715612e5557612e54612ebc565b5b80604052505050565b7f4e487b7100000000000000000000000000000000000000000000000000000000600052601160045260246000fd5b7f4e487b7100000000000000000000000000000000000000000000000000000000600052602260045260246000fd5b7f4e487b7100000000000000000000000000000000000000000000000000000000600052604160045260246000fd5b6000601f19601f8301169050919050565b7f4552433732313a207472616e7366657220746f206e6f6e20455243373231526560008201527f63656976657220696d706c656d656e7465720000000000000000000000000000602082015250565b7f4f776e61626c653a206e6577206f776e657220697320746865207a65726f206160008201527f6464726573730000000000000000000000000000000000000000000000000000602082015250565b7f4552433732313a20746f6b656e20616c7265616479206d696e74656400000000600082015250565b7f4552433732313a207472616e7366657220746f20746865207a65726f2061646460008201527f7265737300000000000000000000000000000000000000000000000000000000602082015250565b7f4552433732313a20617070726f766520746f2063616c6c657200000000000000600082015250565b7f4552433732313a206f70657261746f7220717565727920666f72206e6f6e657860008201527f697374656e7420746f6b656e0000000000000000000000000000000000000000602082015250565b7f4e465420616c7265616479206372656174656400000000000000000000000000600082015250565b7f4552433732313a20617070726f76652063616c6c6572206973206e6f74206f7760008201527f6e6572206e6f7220617070726f76656420666f7220616c6c0000000000000000602082015250565b7f4552433732313a2062616c616e636520717565727920666f7220746865207a6560008201527f726f206164647265737300000000000000000000000000000000000000000000602082015250565b7f4552433732313a206f776e657220717565727920666f72206e6f6e657869737460008201527f656e7420746f6b656e0000000000000000000000000000000000000000000000602082015250565b7f4552433732313a206d696e7420746f20746865207a65726f2061646472657373600082015250565b7f4552433732313a20617070726f76656420717565727920666f72206e6f6e657860008201527f697374656e7420746f6b656e0000000000000000000000000000000000000000602082015250565b7f4f776e61626c653a2063616c6c6572206973206e6f7420746865206f776e6572600082015250565b7f4552433732313a207472616e73666572206f6620746f6b656e2074686174206960008201527f73206e6f74206f776e0000000000000000000000000000000000000000000000602082015250565b7f4552433732314d657461646174613a2055524920717565727920666f72206e6f60008201527f6e6578697374656e7420746f6b656e0000000000000000000000000000000000602082015250565b7f4552433732313a20617070726f76616c20746f2063757272656e74206f776e6560008201527f7200000000000000000000000000000000000000000000000000000000000000602082015250565b7f4552433732313a207472616e736665722063616c6c6572206973206e6f74206f60008201527f776e6572206e6f7220617070726f766564000000000000000000000000000000602082015250565b61338681612d45565b811461339157600080fd5b50565b61339d81612d57565b81146133a857600080fd5b50565b6133b481612d63565b81146133bf57600080fd5b50565b6133cb81612daf565b81146133d657600080fd5b5056fea26469706673582212204c1298d6f9ce302c440fe797dd62a1fbb35a14f7550036b540889b46b52ea15764736f6c63430008030033",
  "immutableReferences": {},
  "source": "pragma solidity ^0.8.0;\r\n\r\nimport '@openzeppelin/contracts/token/ERC721/ERC721.sol';\r\nimport \"@openzeppelin/contracts/utils/Counters.sol\";\r\nimport '@openzeppelin/contracts/access/Ownable.sol';\r\n\r\ncontract OpenNFT is ERC721, Ownable {\r\n    using Counters for Counters.Counter;\r\n    Counters.Counter public tokenId;\r\n\r\n    string private baseUri;\r\n\r\n    event NFTInitialised(uint _time, address _caller);\r\n\r\n    event NftTokenCreated(address creator, uint tokenId, string tokenUri);\r\n    \r\n    mapping(uint => string) private tokenURIs;\r\n\r\n    mapping(address => uint[]) private user_to_tokens;  //new\r\n\r\n    mapping(string => uint8) private hash_to_isExiting;\r\n    mapping(uint => address) private token_to_creator;\r\n    mapping(uint => string) private token_to_caption;\r\n\r\n    constructor (\r\n        string memory _name,\r\n        string memory _symbol\r\n    ) \r\n    public \r\n    ERC721(_name, _symbol)\r\n    {\r\n        setBaseUrl('https://ipfs.infura.io/ipfs/');\r\n        emit NFTInitialised(block.timestamp, msg.sender);\r\n    }\r\n\r\n    function createNFT(\r\n        address _creator,\r\n        string memory _tokenURI,\r\n        string memory _caption\r\n    ) \r\n                                    public returns(uint _reward) {\r\n        require(hash_to_isExiting[_tokenURI]!=1, \"NFT already created\");\r\n        tokenId.increment();\r\n\r\n        uint newTokenId = tokenId.current();\r\n\r\n        tokenURIs[newTokenId] = _tokenURI;\r\n        user_to_tokens[_creator].push(newTokenId);  //new\r\n        hash_to_isExiting[_tokenURI] = 1;\r\n        token_to_creator[newTokenId] = _creator;\r\n        token_to_caption[newTokenId] = _caption;\r\n\r\n        _mint(_creator, newTokenId);\r\n\r\n        emit NftTokenCreated(_creator, newTokenId, tokenURIs[newTokenId]);\r\n\r\n        return 1;\r\n    }\r\n\r\n    function getUserNFTs(address _creator) public \r\n                                view returns(uint[] memory _tokens) {\r\n        return user_to_tokens[_creator];\r\n    }\r\n\r\n    function getTokenUri(uint _tokenId) public \r\n                                view returns(string memory tokenUri_){\r\n        return tokenURIs[_tokenId];\r\n    }\r\n\r\n    function getCreator(uint _tokenId) public\r\n                                view returns(address creator) {\r\n        return token_to_creator[_tokenId];\r\n    }\r\n\r\n    function getCaption(uint _tokenId) public\r\n                                view returns(string memory caption){\r\n        return token_to_caption[_tokenId];\r\n    }\r\n\r\n    function tokenURI(uint256 _tokenId) public view virtual override returns (string memory _uri) {\r\n        require(_exists(_tokenId), \"ERC721Metadata: URI query for nonexistent token\");\r\n\r\n        string memory baseURI = _baseURI();\r\n        return bytes(baseURI).length > 0\r\n            ? string(abi.encodePacked(baseURI, tokenURIs[_tokenId]))\r\n            : '';\r\n    }\r\n\r\n    function setBaseUrl(string memory baseUri_) public onlyOwner {\r\n        baseUri = baseUri_;\r\n    }\r\n\r\n    function _baseURI() internal override view returns(string memory _base_URI){\r\n        return baseUri;\r\n    }\r\n\r\n    fallback () external {\r\n        revert();\r\n    }\r\n\r\n}",
  "sourcePath": "E:\\Projects\\BlockchainBootcamp\\open-nft-marketplace\\contracts\\OpenNFT.sol",
  "compiler": {
    "name": "solc",
    "version": "0.8.3+commit.8d00100c.Emscripten.clang"
  },
  "schemaVersion": "3.3.4",
  "updatedAt": "2021-03-25T04:54:09.257Z",
  "devdoc": {
    "kind": "dev",
    "methods": {
      "approve(address,uint256)": {
        "details": "See {IERC721-approve}."
      },
      "balanceOf(address)": {
        "details": "See {IERC721-balanceOf}."
      },
      "getApproved(uint256)": {
        "details": "See {IERC721-getApproved}."
      },
      "isApprovedForAll(address,address)": {
        "details": "See {IERC721-isApprovedForAll}."
      },
      "name()": {
        "details": "See {IERC721Metadata-name}."
      },
      "owner()": {
        "details": "Returns the address of the current owner."
      },
      "ownerOf(uint256)": {
        "details": "See {IERC721-ownerOf}."
      },
      "renounceOwnership()": {
        "details": "Leaves the contract without owner. It will not be possible to call `onlyOwner` functions anymore. Can only be called by the current owner. NOTE: Renouncing ownership will leave the contract without an owner, thereby removing any functionality that is only available to the owner."
      },
      "safeTransferFrom(address,address,uint256)": {
        "details": "See {IERC721-safeTransferFrom}."
      },
      "safeTransferFrom(address,address,uint256,bytes)": {
        "details": "See {IERC721-safeTransferFrom}."
      },
      "setApprovalForAll(address,bool)": {
        "details": "See {IERC721-setApprovalForAll}."
      },
      "supportsInterface(bytes4)": {
        "details": "See {IERC165-supportsInterface}."
      },
      "symbol()": {
        "details": "See {IERC721Metadata-symbol}."
      },
      "transferFrom(address,address,uint256)": {
        "details": "See {IERC721-transferFrom}."
      },
      "transferOwnership(address)": {
        "details": "Transfers ownership of the contract to a new account (`newOwner`). Can only be called by the current owner."
      }
    },
    "version": 1
  },
  "userdoc": {
    "kind": "user",
    "methods": {},
    "version": 1
  }
}